:100000000C94E2000C94FF000C94FF000C94FF0091
:100010000C94FF000C94FF000C94FF000C94FF0064
:100020000C94FF000C94FF000C94FF000C94FF0054
:100030000C94FF000C94D0070C9414080C94FF004F
:100040000C94FF000C94FF000C94FF000C94FF0034
:100050000C94FF000C94FF000C947F06510A802A38
:100060000000000A0040000059551801111E111B24
:10007000500B411B411F1101511F511B000000007B
:1000800000000000000000000000510F91394114F1
:100090009131411E410E411D500F802010154886A0
:1000A0004014780570855115510E5195518E21904F
:1000B00081205015484450C528C028200950000010
:1000C0000000000000000000000000407A10F35A19
:1000D00000A0724E18090010A5D4E80000E8764888
:1000E000170000E40B54020000CA9A3B000000E134
:1000F000F505000080969800000040420F000000C7
:10010000A08601000000102700000000E8030000A6
:1001100000006400000000000A0000000000010070
:10012000000000002C76D888DC674F0823DFC1DF91
:10013000AE59E1B1B796E5E3E453C63AE651997694
:1001400096E8E6C28426EB898C9B62ED407C6FFCCE
:10015000EFBC9C9F40F2BAA56FA5F490055A2AF710
:100160005C936B6CF9676DC11BFCE0E40D47FEF519
:1001700020E6B500D0ED902E030094357705008081
:10018000841E080000204E0A000000C80C333333E0
:10019000330F986E12831141EF8D2114893BE65580
:1001A00016CFFEE6DB18D1844B381BF77C1D901D63
:1001B000A4BBE424203284725E228100C9F124ECC5
:1001C000A1E53D2711241FBECFEFD4E0DEBFCDBF98
:1001D00012E0A0E0B1E0EAECFDE202C005900D9271
:1001E000AA38B107D9F713E0AAE8B2E001C01D921E
:1001F000AD39B107E1F70E94200B0C94E3160C9483
:100200000000DF93CF9300D000D0CDB7DEB71C82C3
:100210001B8280E095E09A8389830FC089819A814F
:1002200002979A838983E981FA81208131818B81C8
:100230009C81822793279C838B832FE933E08981DC
:100240009A818217930750F78B819C81CC01A0E0A3
:10025000B0E0BC01CD010E940D140F900F900F90E3
:100260000F90CF91DF910895DF93CF93CDB7DEB795
:10027000A4E2B0E0E4E2F0E080818F728C93ADE222
:10028000B0E0EDE2F0E08081837F8C93A5E2B0E006
:10029000E5E2F0E08081806D8C93AEE2B0E0EEE2CA
:1002A000F0E080818C608C93A3E2B0E0E3E2F0E0C8
:1002B0008081806D8C93ACE2B0E0ECE2F0E0808174
:1002C0008C608C93E7E2F0E08FEF8083E8E2F0E06F
:1002D0008FEF80830E940101A4E2B0E0E4E2F0E04D
:1002E000808180628C93CF91DF910895DF93CF93CB
:1002F000CDB7DEB727970FB6F894DEBF0FBECDBFE0
:100300008F838F81882F90E09C01220F331FC901BA
:10031000880F991F880F991F820F931F9C838B83CF
:100320001E821D820FC088E893E19A8389838981A8
:100330009A810197F1F79A8389838D819E81019635
:100340009E838D832D813E818B819C812817390767
:1003500050F327960FB6F894DEBF0FBECDBFCF91F6
:10036000DF910895DF93CF930F92CDB7DEB784E08E
:100370008983AAE7B0E0EAE7F0E08081887F8C9388
:10038000AAE7B0E0EAE7F0E090818981892B8C93BD
:100390000F90CF91DF910895DF93CF9300D000D0DD
:1003A00000D0CDB7DEB79C838B837E836D838B813A
:1003B0009C81880F991F9C01442737FD4095542F3D
:1003C00080E492E4AFE0B0E0BC01CD010E946F1682
:1003D000DA01C9019A838983E6E8F0E089819A818C
:1003E00091838083E0E8F0E080E88083E1E8F0E05A
:1003F00080E18083A1E8B0E0E1E8F0E08081816005
:100400008C938D819E819C01220F331FC901880F1F
:10041000991F880F991F820F931F0E947601A1E8F0
:10042000B0E0E1E8F0E080818E7F8C9326960FB6F5
:10043000F894DEBF0FBECDBFCF91DF910895DF935B
:10044000CF93CDB7DEB7A5E2B0E0E5E2F0E0808182
:100450008F608C93A4E2B0E0E4E2F0E080818760FA
:100460008C93EDE4F0E081E08083ECE4F0E08CE557
:100470008083CF91DF910895DF93CF9300D0CDB7E4
:10048000DEB78A83EEE4F0E08A818083EDE4F0E079
:1004900080818823DCF7EEE4F0E080818983898124
:1004A0000F900F90CF91DF910895DF93CF9300D0FD
:1004B000CDB7DEB7A5E2B0E0E5E2F0E08081816093
:1004C0008C93A5E2B0E0E5E2F0E080818E7F8C9332
:1004D00087E50E943C028A8380E00E943C028A8376
:1004E0008A81882F90E0887390709595879595956F
:1004F00087959595879589838981882F90E0FC0160
:10050000E050FF4F8081809334038981882F90E0F1
:10051000880F991FFC01E85FFE4F808191819093C5
:100520003603809335038A810F900F90CF91DF912E
:100530000895DF93CF9300D00F92CDB7DEB79A83A3
:1005400089836B83A5E2B0E0E5E2F0E08081816021
:100550008C93A5E2B0E0E5E2F0E080818E7F8C93A1
:100560008B81813049F583E50E943C028091340300
:10057000282F30E080E190E0AC01421B530B9A0140
:1005800089819A8102C0969587952A95E2F70E9403
:100590003C0280913403882F90E09C012850304029
:1005A00089819A8102C0880F991F2A95E2F70E94DB
:1005B0003C0280E00E943C02A5E2B0E0E5E2F0E00F
:1005C000808181608C93A5E2B0E0E5E2F0E080817B
:1005D0008E7F8C930E9455028823E4F70F900F9032
:1005E0000F90CF91DF910895DF93CF9300D000D08B
:1005F000CDB7DEB78A837C836B83A5E2B0E0E5E20A
:10060000F0E0808181608C93A5E2B0E0E5E2F0E06B
:1006100080818E7F8C938A818130B1F484E50E9441
:100620003C0280E00E943C028B819C81892F9927AB
:100630000E943C028B810E943C0280E00E943C02AE
:1006400080E00E943C02898389810F900F900F9077
:100650000F90CF91DF910895DF93CF93CDB7DEB7A1
:1006600029970FB6F894DEBF0FBECDBF8B837D8375
:100670006C835F834E8339872887A5E2B0E0E5E28B
:10068000F0E0808181608C93A5E2B0E0E5E2F0E0EB
:1006900080818E7F8C938B81813061F584E50E940F
:1006A0003C0280E00E943C028C819D81892F992729
:1006B0000E943C028C810E943C0280E00E943C022D
:1006C0001A82198210C080E00E943C02E885F985F8
:1006D00080838885998501969987888789819A8101
:1006E00001969A83898329813A818E819F81281777
:1006F000390748F329960FB6F894DEBF0FBECDBF79
:10070000CF91DF910895DF93CF9300D00F92CDB7B3
:10071000DEB789837B836A83A5E2B0E0E5E2F0E09F
:10072000808181608C93A5E2B0E0E5E2F0E0808119
:100730008E7F8C938981813079F484E80E943C0219
:1007400080E00E943C028A819B81892F99270E9428
:100750003C028A810E943C020F900F900F90CF9133
:10076000DF910895DF93CF9300D000D0CDB7DEB7EF
:1007700089837B836A834C83A5E2B0E0E5E2F0E005
:10078000808181608C93A5E2B0E0E5E2F0E08081B9
:100790008E7F8C938981813091F484E80E943C02A1
:1007A00080E00E943C028A819B81892F99270E94C8
:1007B0003C028A810E943C028C810E943C020F9084
:1007C0000F900F900F90CF91DF910895DF93CF930B
:1007D000CDB7DEB729970FB6F894DEBF0FBECDBFF9
:1007E0008B837D836C835F834E8339872887A5E263
:1007F000B0E0E5E2F0E0808181608C93A5E2B0E0BA
:10080000E5E2F0E080818E7F8C938B81813041F531
:1008100084E80E943C0280E00E943C028C819D8121
:10082000892F99270E943C028C810E943C021A82E7
:1008300019820FC0E885F98580810E943C02888575
:10084000998501969987888789819A8101969A83EB
:10085000898329813A818E819F812817390750F336
:1008600029960FB6F894DEBF0FBECDBFCF91DF91B2
:100870000895DF93CF9300D00F92CDB7DEB7898371
:100880007B836A83A5E2B0E0E5E2F0E080818160ED
:100890008C93A5E2B0E0E5E2F0E080818E7F8C935E
:1008A0008981813049F583E80E943C0280913403BC
:1008B000282F30E080E190E0AC01421B530B9A01FD
:1008C0008A819B8102C0969587952A95E2F70E94BE
:1008D0003C0280913403882F90E09C0128503040E6
:1008E0008A819B8102C0880F991F2A95E2F70E9496
:1008F0003C0280E00E943C02A5E2B0E0E5E2F0E0CC
:10090000808181608C93A5E2B0E0E5E2F0E0808137
:100910008E7F8C930E9455028823E4F70F900F90EE
:100920000F90CF91DF910895DF93CF9300D000D047
:10093000CDB7DEB79A8389837C836B83A5E2B0E071
:10094000E5E2F0E0808181608C93A5E2B0E0E5E231
:10095000F0E080818E7F8C9388E60E943C0280913B
:100960003403282F30E080E190E0AC01421B530BB0
:100970009A0189819A8102C0969587952A95E2F716
:100980000E943C0280913403882F90E09C01285003
:10099000304089819A8102C0880F991F2A95E2F719
:1009A000282F8B819C81892F9927820F0E943C02DE
:1009B0008B810E943C0280E00E943C0280E00E9409
:1009C0003C0280E00E943C0280E00E943C020F90CA
:1009D0000F900F900F90CF91DF910895DF93CF93F9
:1009E000CDB7DEB780E00E945F06E7EEF0E08FE073
:1009F0008083E5EEF0E087EB8083E6EEF0E087E0D1
:100A00008083E4EEF0E080EC8083A4EEB0E0E4EEDE
:100A1000F0E0808188608C9310928A027894CF9164
:100A2000DF910895DF93CF930F92CDB7DEB7109289
:100A30008E0219820BC08981882F90E0FC01E25957
:100A4000FC4F80E2808389818F5F8983898189312E
:100A500090F30F90CF91DF910895DF93CF9300D063
:100A60000F92CDB7DEB79B838A8381E080938E029D
:100A700081E080938A0288EC90E00E94660781E022
:100A800080938E0280918E02882309F443C01092D5
:100A90008E0280918A028823E1F7198213C089812E
:100AA000482F50E08981282F30E08A819B81FC010A
:100AB000E20FF31F8081FA01E259FC4F80838981A4
:100AC0008F5F89838981282F30E08A819B81FC0197
:100AD000E20FF31F8081882319F089818931F8F2B0
:100AE0008981882F90E0FC01E259FC4F10828981B6
:100AF000873048F081E0809337031092870383E0CA
:100B000080938B0204C0109237031092870381E018
:100B100080938A020F900F900F90CF91DF910895EC
:100B2000DF93CF9300D0CDB7DEB78A83198281E0FF
:100B300080938E0289EC90E00E946607898189315A
:100B400040F48981882F90E0FC01E259FC4F8A81B2
:100B500080830F900F90CF91DF910895DF93CF9313
:100B60000F92CDB7DEB78983898180938D020F9074
:100B7000CF91DF910895DF93CF9300D0CDB7DEB74B
:100B800089836A8380918A028823E1F78A8180932E
:100B9000370310928703898180938A020F900F9008
:100BA000CF91DF910895DF93CF93CDB7DEB7109249
:100BB0008C02CF91DF910895DF93CF93CDB7DEB74D
:100BC0002D970FB6F894DEBF0FBECDBF8C876D8713
:100BD0001B861A868D85863008F068C08C858A321F
:100BE00010F18C858B37F8F48C85813618F08C8564
:100BF0008F7D8C878C858A528C878C85882F90E09E
:100C0000880F991F845A9F4F9C838B838B819C8173
:100C1000FC01859194919A838983FC83EB8389817C
:100C20009A819B878A878D85882F90E0817090704C
:100C3000882319F08FE0898702C080EF89878D852E
:100C40008695882F90E0865A9C4F9F838E831D82C5
:100C50002AC08A858F7088878A859B859295829520
:100C60008F7089279F7089279B878A878D85882F1A
:100C700090E081709070882321F088858295807F34
:100C80008887EE81FF819081898598238885892BCB
:100C9000EE81FF8180838E819F8105969F838E8365
:100CA0008D818F5F8D838D81843098F22D960FB664
:100CB000F894DEBF0FBECDBFCF91DF910895DF93D3
:100CC000CF9300D0CDB7DEB78A838A81882311F015
:100CD0008FEF8A8319820BC08981882F90E0FC01F5
:100CE000E65AFC4F8A81808389818F5F898389815D
:100CF000843190F30F900F90CF91DF9108951F9260
:100D00000F920FB60F9211242F933F934F935F933F
:100D10006F937F938F939F93AF93BF93EF93FF93C3
:100D2000DF93CF9300D000D00F92CDB7DEB7809184
:100D3000180181508093180180913703882391F026
:100D400080911801882381F480918B02882321F4FB
:100D500081E080938A0208C080918B028150809349
:100D60008B0202C0109287031A8280918A0281301E
:100D700009F081C080918C02853010F41B8202C082
:100D800081E08B83198243C080918703282F33270A
:100D900027FD30958981882F90E0820F931F99233A
:100DA00014F18A818823F9F48981282F30E0809119
:100DB0008703992787FD9095820F931FFC01E259C5
:100DC000FC4F80818D838D811C82882314F481E007
:100DD0008C838D818F778D838D81882331F48981F8
:100DE0008F5F8A8302C080E28D838C81882341F0EB
:100DF0008B81882329F080E269810E94DC0504C090
:100E00008D8169810E94DC0589818F5F8983898159
:100E1000863008F4B9CF198211C08981882F90E0FB
:100E2000DC01A451BF4F8981882F90E0FC01E65A74
:100E3000FC4F80818C9389818F5F89838981843184
:100E400060F380918D02882329F0E4EFF0E081E0E7
:100E5000808303C0E4EFF0E010828A81813021F4C6
:100E60008AEF8093870305C0809187038F5F80930B
:100E7000870310928A0280911801882319F483E075
:100E80008093180180918C028A3019F410928C02A0
:100E900005C080918C028F5F80938C020F900F9021
:100EA0000F900F900F90CF91DF91FF91EF91BF9135
:100EB000AF919F918F917F916F915F914F913F91F2
:100EC0002F910F900FBE0F901F901895DF93CF9327
:100ED000CDB7DEB729970FB6F894DEBF0FBECDBFF2
:100EE0009987888781E080938E0280918E02882383
:100EF00009F44DC010928E0280918A028823E1F796
:100F00001F8218C08F81482F50E08F81282F30E03A
:100F100088859985820F931F9E838D83ED81FE8145
:100F200084918C838C81FA01E259FC4F80838F81FC
:100F30008F5F8F838F81282F30E088859985820F7E
:100F4000931F9B838A83EA81FB81849189838981B2
:100F5000882319F08F818931A8F28F81882F90E042
:100F6000FC01E259FC4F10828F81873048F081E00C
:100F7000809337031092870383E080938B0204C031
:100F8000109237031092870381E080938A0229969A
:100F90000FB6F894DEBF0FBECDBFCF91DF9108959D
:100FA0001F920F920FB60F9211248F939F93EF937E
:100FB000FF93DF93CF9300D000D0CDB7DEB7E0EC46
:100FC000F0E080818A83E6ECF0E080818B838A8187
:100FD00088718983809131038F5F8F778C839091A3
:100FE00032038C81891719F482E089830BC08C81CC
:100FF000809331038C81882F90E0FC01E155FD4FF7
:101000008B8180838981809333030F900F900F90A1
:101010000F90CF91DF91FF91EF919F918F910F9062
:101020000FBE0F901F9018951F920F920FB60F9240
:1010300011248F939F93AF93BF93EF93FF93DF930D
:10104000CF930F92CDB7DEB790912F0380913003ED
:10105000981799F0809130038F5F8F718983898110
:1010600080933003A6ECB0E08981882F90E0FC01EA
:10107000E157FD4F80818C9307C0A1ECB0E0E1EC1B
:10108000F0E080818F7D8C930F90CF91DF91FF9165
:10109000EF91BF91AF919F918F910F900FBE0F90E5
:1010A0001F901895DF93CF9300D0CDB7DEB79A830A
:1010B000898310922F031092300310923103109203
:1010C000320389819A8199234CF4E0ECF0E082E0CC
:1010D000808389819A819F779A838983E5ECF0E008
:1010E00089819A81892F99278083E4ECF0E08981B6
:1010F0008083E1ECF0E088E98083E2ECF0E086E0D8
:1011000080830F900F90CF91DF910895DF93CF935D
:1011100000D000D0CDB7DEB790913103809132037B
:10112000981729F480E091E09C838B831DC0809107
:1011300032038F5F8F778A838A81809332038A811B
:10114000882F90E0FC01E155FD4F808189838091DB
:101150003303882F90E0382F22278981882F90E051
:10116000820F931F9C838B838B819C810F900F90A8
:101170000F900F90CF91DF910895DF93CF9300D020
:10118000CDB7DEB78A8380912F038F5F8F718983FC
:101190009091300389818917D9F38981882F90E054
:1011A000FC01E157FD4F8A818083898180932F0361
:1011B000A1ECB0E0E1ECF0E0808180628C930F90D4
:1011C0000F90CF91DF910895DF93CF9300D0CDB7EB
:1011D000DEB79A8389830BC0E981FA8120818981F6
:1011E0009A8101969A838983822F0E94BD08E981A2
:1011F000FA818081882381F70F900F90CF91DF9142
:101200000895DF93CF9300D000D000D0CDB7DEB7E4
:101210009D838C8303C08E810E94BD088C819D813B
:101220009B838A838C819D8101969D838C83EA8137
:10123000FB818491898389818E838E81882359F7EC
:1012400026960FB6F894DEBF0FBECDBFCF91DF91CB
:1012500008950F931F93DF93CF93CDB7DEB72F97EA
:101260000FB6F894DEBF0FBECDBF9B878A876C8711
:101270005E874D8719861D821E821F8218868D8586
:101280009E85AA2797FDA095BA2F24ED30E340E074
:1012900050E0BC01CD010E945016AB01BC018C8511
:1012A000882F90E09C01220F331FC901880F991FDE
:1012B000880F991F820F931FAA2797FDA095BA2F19
:1012C000840F951FA61FB71F89839A83AB83BC83A6
:1012D000EA85FB8510821F862D813E814F815885CE
:1012E00089819A81AB81BC8182179307A407B507D6
:1012F00010F481E08F878D819E81AF81B885019642
:10130000A11DB11D8D839E83AF83B887EF85EE232A
:1013100009F04CC08985282F30E08A859B858C0197
:10132000020F131F0E948608F80180838985282FE9
:1013300030E08A859B85FC01E20FF31F80818823C2
:1013400051F28985282F30E08A859B85FC01E20FC8
:10135000F31F80818A3009F4BECF8985282F30E0C1
:101360008A859B85FC01E20FF31F80818D3021F07F
:1013700099858C85981751F48985282F30E08A85C6
:101380009B85FC01E20FF31F108210C08985282F76
:1013900030E08A859B85FC01E20FF31F8081882362
:1013A00009F499CF89858F5F898795CF2F960FB6DE
:1013B000F894DEBF0FBECDBFCF91DF911F910F918B
:1013C0000895DF93CF93CDB7DEB7ECE2F0E08081F4
:1013D000882F90E0887090700097B9F3ECE2F0E00D
:1013E0008081882F90E0847090700097B9F3E3E2D9
:1013F000F0E08081882F90E0807490700097B9F3BE
:10140000E3E2F0E080818823DCF7E3E2F0E0808132
:10141000882F90E0807190700097B9F3CF91DF91A1
:1014200008950F931F93DF93CF93CDB7DEB76297E5
:101430000FB6F894DEBF0FBECDBF9E838D83788735
:101440006F83EF81F885208131818D819E81820FAC
:10145000931FEF81F88591838083EF81F8858081E8
:101460009181843691053CF0EF81F88584E690E027
:10147000918380830BC0EF81F8858081918118165C
:10148000190624F0EF81F8851182108286E194E03C
:1014900060E070E00E94CC01EF81F885808191814D
:1014A000AA2797FDA095BA2FBC01CD010E94121268
:1014B000DC01CB01E8E3F3E0BC01CD0143E020E037
:1014C0008F010E94941388E393E00E942D051C82F3
:1014D0001B8261C01A82198205C089819A81019696
:1014E0009A83898389819A8122E08C3B9207ACF3AD
:1014F0008B819C8101969C838B838B819C8188311D
:1015000091050CF448C0EF81F885208131818D81EF
:101510009E81820F931FEF81F88591838083EF81F5
:10152000F88580819181843691053CF0EF81F885C2
:1015300084E690E0918380830BC0EF81F885808101
:1015400091811816190624F0EF81F8851182108216
:1015500086E194E060E070E00E94CC01EF81F885C4
:1015600080819181AA2797FDA095BA2FBC01CD015A
:101570000E941212DC01CB01E8E3F3E0BC01CD01D3
:1015800043E020E08F010E94941388E393E00E94DF
:101590002D051C821B82ECE2F0E08081882F90E018
:1015A000847090701A8A009711F431E03A8BECE263
:1015B000F0E08081882F90E088709070198A009701
:1015C00011F481E0898B8A899989892B282F30E051
:1015D000388B2F87EF81F885808191811E861D864B
:1015E0008436910524F081E090E09E878D872F85D9
:1015F00038898D859E85282B392B3C872B87EF8159
:10160000F885808191811A8619861816190624F0AA
:1016100021E030E03A8729878B859C8529853A85AA
:10162000822B932B009709F055CF62960FB6F89452
:10163000DEBF0FBECDBFCF91DF911F910F910895F7
:101640000F931F93DF93CF93CDB7DEB72B970FB6D2
:10165000F894DEBF0FBECDBF0E9434010E94EE049D
:101660000E9412051B8282E390E09D838C83CE0151
:1016700004969A838983E9E8F0E01082E8E8F0E0D4
:101680008C819D8180838B81282F30E03B872A8746
:101690008A859B858A31910509F439C32A853B8562
:1016A0002B3131050CF0B5C08A859B858D309105B5
:1016B00009F47AC22A853B852E3031050CF054C0DE
:1016C0008A859B858530910509F4D1C12A853B85A2
:1016D0002630310524F58A859B858230910509F4F1
:1016E00080C12A853B852330310564F48A859B853A
:1016F000009709F444C12A853B852130310509F45E
:101700004DC18EC68A859B858330910509F478C1C9
:101710002A853B852430310509F49AC181C68A8522
:101720009B858830910509F4CAC12A853B852930FB
:1017300031056CF48A859B858630910509F4CDC10D
:101740002A853B852730310509F4D6C169C68A85CB
:101750009B858930910509F4B6C12A853B852A30DD
:10176000310509F4B5C15CC68A859B858331910535
:1017700009F45BC22A853B85243131052CF58A8525
:101780009B858031910509F434C32A853B8521313D
:1017900031056CF48A859B858E30910509F413C25E
:1017A0002A853B852F30310509F414C339C68A8553
:1017B0009B858131910509F451C32A853B852231EE
:1017C000310509F45AC32CC68A859B85863191055B
:1017D00009F4CBC12A853B85273131056CF48A8514
:1017E0009B858431910509F42FC22A853B852531DB
:1017F000310509F4ABC114C68A859B8587319105F3
:1018000009F457C22A853B852831310509F460C2A5
:1018100007C68A859B858632910509F489C42A8585
:101820003B85273231050CF055C08A859B85803277
:10183000910509F49BC32A853B85213231052CF59E
:101840008A859B858D31910509F45BC32A853B858B
:101850002E3131056CF48A859B858B31910509F415
:101860007AC22A853B852C31310509F43BC3D8C5A2
:101870008A859B858E31910509F411C42A853B85A3
:101880002F31310509F41AC4CBC58A859B85833273
:10189000910509F4BAC32A853B85243231056CF4DD
:1018A0008A859B858132910509F465C32A853B852C
:1018B0002232310509F46EC3B3C58A859B85843213
:1018C000910509F4B1C32A853B852532310509F418
:1018D0002AC4A6C58A859B858C32910509F42EC53C
:1018E0002A853B852D3231052CF58A859B858932E9
:1018F000910509F476C42A853B852A3231056CF4BA
:101900008A859B858732910509F421C42A853B8508
:101910002832310509F456C483C58A859B858A32ED
:10192000910509F499C42A853B852B32310509F4C8
:10193000A2C476C58A859B858F32910509F4DFC4E0
:101940002A853B85203331056CF48A859B858D3251
:10195000910509F402C52A853B852E32310509F42B
:10196000BFC45EC58A859B858033910509F42AC56D
:101970002A853B852133310509F433C551C586E1FC
:1019800094E060E070E00E94CC018AE191E00E9466
:101990002D050E94E10981E08B8375CEECE2F0E039
:1019A0008081882F90E084709070009711F482E01D
:1019B0008B83ECE2F0E08081882F90E0887090705B
:1019C000009711F484E08B83E3E2F0E08081882FBC
:1019D00090E080719070009709F055CE88E08B837D
:1019E00052CE86E194E060E070E00E94CC0180E29B
:1019F00091E00E942D050E94E10983E08B8343CE94
:101A0000ECE2F0E08081882F90E084709070009785
:101A100011F484E08B83ECE2F0E08081882F90E089
:101A200088709070009709F41B82E3E2F0E0308147
:101A3000E3E2F0E08081E3E2F0E08081882F90E053
:101A400080719070009709F01ECE89E08B831BCEC9
:101A500086E194E060E070E00E94CC0187E291E0D2
:101A60000E942D050E94E10985E08B830CCEECE2FB
:101A7000F0E08081882F90E084709070009709F4E6
:101A80001B82ECE2F0E08081882F90E088709070FB
:101A9000009711F482E08B83E3E2F0E09081E3E2CF
:101AA000F0E02081E3E2F0E08081882F90E0807117
:101AB0009070009709F0E7CD8AE08B83E4CD1B821C
:101AC00086E08B83E0CD8BE08B838FE08B83DBCD57
:101AD0008CE08B8381E18B83D6CD86E194E060E05E
:101AE00070E00E94CC018EE291E00E942D050E94E0
:101AF000E10987E08B83C7CDECE2F0E08081882F9D
:101B000090E084709070009711F48DE08B83ECE28C
:101B1000F0E08081882F90E088709070009711F439
:101B200083E18B83E3E2F0E08081882314F085E198
:101B30008B83E3E2F0E08081882F90E080719070E9
:101B4000009709F0A0CD85E18B839DCD86E194E0DF
:101B500060E070E00E94CC0184E391E00E942D05DA
:101B60000E94E10986E18B838ECDE3E2F0E0808183
:101B7000882F90E080749070009711F486E08B833A
:101B8000E3E2F0E08081882314F086E08B83E3E2D7
:101B9000F0E08081882F90E080719070009709F0CC
:101BA00072CD86E08B836FCD86E194E060E070E0DB
:101BB0000E94CC018BE391E00E942D050E94E10977
:101BC0008EE08B8360CDECE2F0E08081882F90E0A6
:101BD00084709070009711F48FE08B83ECE2F0E05A
:101BE0008081882F90E088709070009711F486E0D3
:101BF0008B83E3E2F0E08081882F90E08074907026
:101C0000009709F41B82E3E2F0E0808188230CF066
:101C10001B82E3E2F0E08081882F90E08071907079
:101C2000009709F030CD1B822ECD86E194E060E074
:101C300070E00E94CC0180E491E00E942D050E949A
:101C4000E10984E18B831FCDECE2F0E08081882FF5
:101C500090E084709070009711F486E08B83ECE242
:101C6000F0E08081882F90E088709070009711F4E8
:101C700081E18B83E3E2F0E08081882F90E0807443
:101C80009070009711F487E18B83E3E2F0E08081AC
:101C9000882314F087E18B83E3E2F0E08081882FD2
:101CA00090E080719070009709F0EDCC87E18B8314
:101CB000EACC86E194E060E070E00E94CC0186E42A
:101CC00091E00E942D050E94E10988E18B83DBCC25
:101CD000E3E2F0E08081882F90E0807490700097BC
:101CE00011F483E18B83E3E2F0E08081882314F038
:101CF0008AE18B83E3E2F0E08081882F90E08071BD
:101D00009070009709F0BFCC8AE18B83BCCC86E150
:101D100094E060E070E00E94CC018C819D81AA2754
:101D200097FDA095BA2FBC01CD010E941212DC01D3
:101D3000CB01E8E3F3E0BC01CD0143E020E08F01FB
:101D40000E94941388E393E00E942D050E94E1090C
:101D50008BE18B8398CCE3E2F0E08081882F90E0E8
:101D600080749070009711F487E18B83E3E2F0E0D8
:101D70008081882314F087E18B83E3E2F0E08081A7
:101D8000882F90E080719070009711F487E18B8329
:101D9000ECE2F0E08081882F90E0847090700097F2
:101DA00039F429813A818FEF9FEFB9010E94110A1E
:101DB000ECE2F0E08081882F90E0887090700097CE
:101DC00009F061CC29813A8181E090E0B9010E945B
:101DD000110A59CC86E194E060E070E00E94CC01E9
:101DE0008DE491E00E942D050E94E10980E18B8342
:101DF0004ACCECE2F0E08081882F90E08470907013
:101E0000009711F481E18B83ECE2F0E08081882F70
:101E100090E088709070009711F48DE08B83E3E27E
:101E2000F0E08081882F90E080749070009711F42A
:101E30008CE18B83E3E2F0E08081882314F08CE175
:101E40008B83E3E2F0E08081882F90E080719070D6
:101E5000009709F018CC8CE18B8315CC86E194E0D7
:101E600060E070E00E94CC0184E591E00E942D05C5
:101E70000E94E10982E18B8306CCECE2F0E08081F4
:101E8000882F90E084709070009711F483E18B8329
:101E9000ECE2F0E08081882F90E0887090700097ED
:101EA00011F48FE08B83E3E2F0E08081882F90E0F3
:101EB00080749070009711F48EE18B83E3E2F0E080
:101EC0008081882314F08EE18B83E3E2F0E080814F
:101ED000882F90E080719070009709F0D4CB8EE14C
:101EE0008B83D1CB86E194E060E070E00E94CC016E
:101EF0008BE591E00E942D050E94E1098DE18B8325
:101F0000C2CBECE2F0E08081882F90E0847090708A
:101F1000009711F48AE28B83ECE2F0E08081882F55
:101F200090E088709070009711F48AE28B83E3E26E
:101F3000F0E08081882F90E080749070009711F419
:101F40008FE08B83E3E2F0E08081882314F080E26D
:101F50008B83E3E2F0E08081882F90E080719070C5
:101F6000009709F090CB80E28B838DCB0E94E10932
:101F700081E28B8388CB86E194E060E070E00E9490
:101F8000CC0182E691E00E942D050E94E10982E2E7
:101F90008B8379CB86E194E060E070E00E94CC0115
:101FA000ECE2F0E08081882F90E0847090700097E0
:101FB00011F483E28B83ECE2F0E08081882F90E0E3
:101FC00088709070009711F483E28B83E3E2F0E075
:101FD0008081882F90E080749070009711F48CE1DC
:101FE0008B83E3E2F0E08081882314F08CE18B8323
:101FF000E3E2F0E08081882F90E08071907000979C
:1020000009F041CB8CE18B833ECB86E194E060E02C
:1020100070E00E94CC0185E691E00E942D050E94AF
:10202000E10984E28B832FCB86E194E060E070E0ED
:102030000E94CC01ECE2F0E08081882F90E0847077
:102040009070009711F481E28B83ECE2F0E08081E4
:10205000882F90E088709070009711F481E28B8354
:10206000E3E2F0E08081882F90E080749070009728
:1020700011F48CE18B83E3E2F0E08081882314F09B
:102080008CE18B83E3E2F0E08081882F90E0807127
:102090009070009709F0F7CA8CE18B83F4CA86E14F
:1020A00094E060E070E00E94CC018BE591E00E943A
:1020B0002D050E94E1098FE18B83E5CAECE2F0E097
:1020C0008081882F90E084709070009711F48CE2EA
:1020D0008B83ECE2F0E08081882F90E08870907034
:1020E000009711F48CE28B83E3E2F0E08081882F8B
:1020F00090E080749070009711F481E18B83E3E2AB
:10210000F0E08081882314F085E28B83E3E2F0E045
:102110008081882F90E080719070009709F0B3CA99
:1021200085E28B83B0CA0E94E10986E28B83ABCA49
:1021300086E194E060E070E00E94CC0182E691E0EC
:102140000E942D050E94E10987E28B839CCA86E1EB
:1021500094E060E070E00E94CC01ECE2F0E080816D
:10216000882F90E084709070009711F488E28B8340
:10217000ECE2F0E08081882F90E08870907000970A
:1021800011F488E28B83E3E2F0E08081882F90E015
:1021900080749070009711F48EE18B83E3E2F0E09D
:1021A0008081882314F08EE18B83E3E2F0E080816C
:1021B000882F90E080719070009709F064CA8EE1DA
:1021C0008B8361CA86E194E060E070E00E94CC01FC
:1021D00085E691E00E942D050E94E10989E28B834A
:1021E00052CA86E194E060E070E00E94CC01ECE22B
:1021F000F0E08081882F90E084709070009711F457
:1022000086E28B83ECE2F0E08081882F90E088709A
:102210009070009711F486E28B83E3E2F0E0808116
:10222000882F90E080749070009711F48EE18B837A
:10223000E3E2F0E08081882314F08EE18B83E3E217
:10224000F0E08081882F90E080719070009709F015
:102250001ACA8EE18B8317CA86E194E060E070E0D1
:102260000E94CC0189E691E00E942D050E94E109BF
:102270008BE28B8308CAECE2F0E08081882F90E04B
:1022800084709070009711F48CE18B83ECE2F0E0A5
:102290008081882F90E088709070009711F48CE115
:1022A0008B83E3E2F0E08081882F90E0807490706F
:1022B000009711F48FE08B83E3E2F0E080818823C4
:1022C00014F08EE28B83E3E2F0E08081882F90E0CF
:1022D00080719070009709F0D6C98EE28B83D3C9C4
:1022E00086E194E060E070E00E94CC0180E791E03C
:1022F0000E942D050E94E1098FE28B83C4C9E3E2AD
:10230000F0E08081882F90E080749070009711F445
:102310008AE28B83E3E2F0E08081882314F08AE292
:102320008B83E3E2F0E08081882F90E080719070F1
:10233000009709F0A8C98AE28B83A5C986E194E0D9
:1023400060E070E00E94CC0187E791E00E942D05DB
:102350000E94E1098DE28B8396C9ECE2F0E0808176
:10236000882F90E084709070009711F48EE18B8339
:10237000ECE2F0E08081882F90E088709070009708
:1023800011F48EE18B83E3E2F0E08081882F90E00E
:1023900080749070009711F481E18B83E3E2F0E0A8
:1023A0008081882314F080E38B83E3E2F0E0808176
:1023B000882F90E080719070009709F064C980E3E5
:1023C0008B8361C986E194E060E070E00E94CC01FB
:1023D0008EE791E00E942D050E94E10981E38B8345
:1023E00052C9E3E2F0E08081882F90E08074907021
:1023F000009711F48CE28B83E3E2F0E08081882384
:1024000014F08CE28B83E3E2F0E08081882F90E08F
:1024100080719070009709F036C98CE28B8333C9C4
:102420001B8231C9A8E0B0E0E8E1F2E10C94B516F6
:102430009B01AC0183E08983DA01C9018827B7FDDC
:1024400083959927AA27BB27B82E21153105410569
:10245000510519F482E089833AC08823A9F020301D
:1024600080E0380780E0480780E8580729F460E0FA
:1024700070E080E09FEC30C0EE24FF248701E21A78
:10248000F30A040B150B02C079018A018EE1C82EF4
:10249000D12CDC82CB82ED82FE820F831887C801AB
:1024A000B7010E94701201971816190684F4082EBD
:1024B00004C0EE0CFF1C001F111F0A94D2F7ED821E
:1024C000FE820F831887C81AD90ADC82CB82BA82AF
:1024D000CE0101960E94BF122896E9E00C94D11615
:1024E000EF92FF920F931F937B018C0180E0E8161F
:1024F00080E0F80681E0080780E0180788F48FEF95
:10250000E816F1040105110531F028F088E090E0AB
:10251000A0E0B0E017C080E090E0A0E0B0E012C022
:1025200080E0E81680E0F80680E0080781E0180700
:1025300028F088E190E0A0E0B0E004C080E190E005
:10254000A0E0B0E020E230E040E050E0281B390B92
:102550004A0B5B0B04C016950795F794E7948A9590
:10256000D2F7F701EB57FE4F8081281B3109410953
:102570005109C9011F910F91FF90EF900895DF92CB
:10258000EF92FF920F931F93FC01E480F580068188
:102590001781D1808081823048F480E090E0A0E112
:1025A000B0E0E82AF92A0A2B1B2BA5C0843009F4D5
:1025B0009FC0823021F4EE24FF24870105C0E1147E
:1025C000F1040105110519F4E0E0F0E096C0628124
:1025D00073819FEF623879070CF05BC022E83FEF10
:1025E000261B370B2A3131052CF020E030E040E08B
:1025F00050E02AC0B801A701022E04C07695679565
:10260000579547950A94D2F781E090E0A0E0B0E0BA
:1026100004C0880F991FAA1FBB1F2A95D2F70197E4
:10262000A109B1098E219F21A023B1230097A10503
:10263000B10521F081E090E0A0E0B0E09A01AB01AB
:10264000282B392B4A2B5B2BDA01C9018F7790702D
:10265000A070B07080349105A105B10539F427FF51
:1026600009C0205C3F4F4F4F5F4F04C0215C3F4F7C
:102670004F4F5F4FE0E0F0E02030A0E03A07A0E0ED
:102680004A07A0E45A0710F0E1E0F0E079018A017E
:1026900027C06038710564F5FB01E158FF4FD80190
:1026A000C7018F779070A070B07080349105A1053C
:1026B000B10539F4E7FE0DC080E490E0A0E0B0E0A1
:1026C00004C08FE390E0A0E0B0E0E80EF91E0A1F1E
:1026D0001B1F17FF05C016950795F794E7943196D1
:1026E00087E016950795F794E7948A95D1F705C08A
:1026F000EE24FF248701EFEFF0E06E2F6795662749
:102700006795902F9F77D794DD24D7948E2F869549
:10271000492F462B582F5D29B701CA011F910F91F0
:10272000FF90EF90DF900895EF92FF920F931F9329
:10273000F22FF02E47FD02C0E4E001C0E4E1242FB7
:10274000332727FD309537FF03C0309521953F4F44
:102750004F2D512F0F2FEE2E0E9416148F2D912FDB
:102760001F910F91FF90EF900895A0E0B0E0EBEB88
:10277000F3E10C94B416EC01A880B980CA80DB8028
:10278000A114B104C104D10441F484E2A82E89ED5E
:10279000B82E8BE5C82E87E0D82EC601B5012DE1F5
:1027A00033EF41E050E00E946F1627EA31E440E049
:1027B00050E00E9450167B018C01C601B5012DE14D
:1027C00033EF41E050E00E946F16CA01B9012CEED0
:1027D00034EF4FEF5FEF0E9450166E0D7F1D801F8C
:1027E000911F97FF04C061507040804090486883FB
:1027F00079838A839B839B01AC015F77B901CA010E
:10280000CDB7DEB7EAE00C94D0160E94B513089558
:1028100085E892E00E94B513089560938502709355
:10282000860280938702909388020895A9E0B0E021
:10283000ECE1F4E10C94B0166A01122FA02EBE2C2C
:102840002BE3201718F42CE3922E02C0902E9394C1
:10285000AE014F5F5F4F27E0092D0E947815BC0144
:102860008981E82EFF24C70189709070019711F4C7
:10287000ADE209C0B1FE02C0ABE205C0B0FC02C0CF
:10288000A0E001C0A0E2E3FE3BC0AA2311F423E0D4
:1028900001C024E0211710F020E002C0121B212FFC
:1028A000EB2CB4FE02C0322F0AC0F601322F80E2B8
:1028B00002C0819331503323E1F7C20ED11CAA2309
:1028C00019F0F601A1936F01F6013196E2FE05C001
:1028D0009EE4D6019C9381E404C09EE6D6019C93BD
:1028E00081E611968C9391833296DF01832F90E2DB
:1028F00002C09D9381508823E1F7E30FF11D40C092
:10290000E2FE42C0AA2311F423E001C024E0211713
:1029100010F020E002C0121B212FEB2CB4FE02C0ED
:10292000922F0AC0F601922F80E202C0819391504B
:102930009923E1F7C20ED11CAA2319F0F601A19345
:102940006F01F6013196E2FE08C089E4D6018C934E
:102950008EE411968C9386E407C089E6D6018C93A9
:102960008EE611968C9386E681833296DF01892F5D
:1029700020E202C02D9381508823E1F7E90FF11D79
:1029800010822EEF3FEFAFC0161617061CF041E085
:1029900050E003C0AB014F5F5F4FAA2019F480E005
:1029A00090E003C08A2D90E0019620E030E0AA2359
:1029B00011F021E030E0240F351F280F391F812F3F
:1029C00090E02817390714F020E002C0121B212FD5
:1029D0004B2D50E0CA0180719070B4FC0DC0B3FC67
:1029E0000BC0F601322F40E202C041933150332335
:1029F000E1F7C20ED11C01C0322FAA2319F0F60153
:102A0000A1936F01892B11F0132F0AC0F601132F28
:102A100080E302C0819311501123E1F7C30ED11C52
:102A2000092D060FBA8090E1892E912C8E209F20CF
:102A3000E4FE04C0F1E3BF1609F40150101614F0CF
:102A400001E003C0093008F008E09B0177FF02C0F5
:102A500020E030E0CB010196821B930BFE01319602
:102A6000E80FF91F8EE2F82E3B01601A71088A2DDB
:102A700090E044275527481B590B8FEF2F3F38070D
:102A800019F4D601FD926D01621773072CF06216DE
:102A9000730614F4808101C080E3215030403196E8
:102AA0002417350724F0D6018D936D01E6CF261744
:102AB000370749F4B5E3BB1528F0BB1621F48114A0
:102AC000910409F481E3F6018193D601812F90E20C
:102AD00002C09C93815011968823D9F7E10FF11D14
:102AE000108220E030E0C9012996EEE00C94CC166B
:102AF000283008F027E03327DA01990F311D87FDD0
:102B0000916000966105710539F432602E5F3D9346
:102B100030E32A95E1F708959F3F30F08038710542
:102B2000610509F03C5F3C5F3D93913008F080689F
:102B3000911DDF93CF931F930F93FF92EF92192F65
:102B4000987F9695E92F96959695E90FFF27EC5D6E
:102B5000FE4F99273327EE24FF24A701E7010590B4
:102B60000894079428F4360FE71EF81E491F511DDC
:102B7000660F771F881F991F0694A1F70590079489
:102B800028F4E70EF81E491F561FC11D770F881F36
:102B9000991F661F0694A1F70590079428F4F80E74
:102BA000491F561FC71FD11D880F991F661F771F0A
:102BB0000694A1F70590079420F4490F561FC71FEC
:102BC000D81F990F661F771F881F0694A9F7849155
:102BD0001095177041F0D695C79557954795F7947E
:102BE000E7941A95C1F7EAECF0E068941590159116
:102BF00035916591959105907FE27395E118F10A01
:102C0000430B560BC90BD009C0F7E10CF11E431F53
:102C1000561FC91FD01D7EF4703311F48A95E6CF7C
:102C2000E894015030F0080F0AF40027021708F466
:102C3000202F2395022F7A3328F079E37D932A956C
:102C4000E9F710C07D932A9589F6069497956795C4
:102C5000379517951794E118F10A430B560BC90BDA
:102C6000D00998F023957E9173957A3308F070E33C
:102C70007C932013B8F77E9170617D9330F083953B
:102C800071E37D9370E32A95E1F71124EF90FF90B3
:102C90000F911F91CF91DF91992787FD909508950E
:102CA000629FD001739FF001829FE00DF11D649F30
:102CB000E00DF11D929FF00D839FF00D749FF00DBC
:102CC000659FF00D9927729FB00DE11DF91F639F5D
:102CD000B00DE11DF91FBD01CF011124089597FB2F
:102CE000092E05260ED057FD04D014D00AD0001CA2
:102CF00038F450954095309521953F4F4F4F5F4F99
:102D00000895F6F790958095709561957F4F8F4F58
:102D10009F4F0895A1E21A2EAA1BBB1BFD010DC0F7
:102D2000AA1FBB1FEE1FFF1FA217B307E407F5077B
:102D300020F0A21BB30BE40BF50B661F771F881F57
:102D4000991F1A9469F760957095809590959B01ED
:102D5000AC01BD01CF0108952F923F924F925F9237
:102D60006F927F928F929F92AF92BF92CF92DF929B
:102D7000EF92FF920F931F93CF93DF93CDB7DEB700
:102D8000CA1BDB0B0FB6F894DEBF0FBECDBF099494
:102D90002A88398848885F846E847D848C849B84EB
:102DA000AA84B984C884DF80EE80FD800C811B81F9
:102DB000AA81B981CE0FD11D0FB6F894DEBF0FBE28
:0A2DC000CDBFED010895F894FFCF98
:102DCA0009090909090A0A0B080108010801080189
:102DDA000801100210022004030F4445425547001F
:102DEA003120303031300032203030303500534518
:102DFA0054205400202038383838004241434B00D0
:102E0A00534F554E4400564F4C554D45005345546B
:102E1A0020543100534554205432004F4E2F4F4610
:102E2A0046004F4E004F464600434E544457310029
:102E3A0020203030313000434E5444573200202095
:102E4A003030303500000102020303030304040496
:102E5A00040404040405050505050505050505051D
:102E6A0005050505050606060606060606060606FD
:102E7A0006060606060606060606060606060606E8
:102E8A0006060606060707070707070707070707CD
:102E9A0007070707070707070707070707070707B8
:102EAA0007070707070707070707070707070707A8
:102EBA000707070707070707070707070707070798
:102ECA00070707070708080808080808080808087D
:102EDA000808080808080808080808080808080868
:102EEA000808080808080808080808080808080858
:102EFA000808080808080808080808080808080848
:102F0A000808080808080808080808080808080837
:102F1A000808080808080808080808080808080827
:102F2A000808080808080808080808080808080817
:102F3A000808080808080808080808080808080807
:0A2F4A000808080808010000000054
:00000001FF
