:100000000C942E000C944B000C944B000C944B0061
:100010000C944B000C94A3130C944B000C944B00C9
:100020000C944B000C943B020C944B000C94151652
:100030000C944B000C944B000C944B000C944B0014
:100040000C944B000C944B000C944B000C944B0004
:100050000C944B000C944B000C944B0011241FBECD
:10006000CFEFD4E0DEBFCDBF11E0A0E0B1E0E6E22B
:10007000FDE202C005900D92A635B107D9F711E057
:10008000A6E5B1E001C01D92A738B107E1F70E94D3
:10009000FA010C9491160C94000087EB8093E50014
:1000A00086E08093E6008EE48093E70080E880930A
:1000B000E40008958091E40084FFFCCF81E98093FF
:1000C000E4008091E40084FFFCCF1092E4000895E6
:1000D0001092EC001092ED001092EE001092EF00E2
:1000E0001092F1001092F2001092F3001092F400BE
:1000F0001092F6001092F7001092F8001092F9009A
:100100001092FB001092FC001092FD001092FE0075
:100110000895982FFB018150863008F0F8C0933085
:1001200009F45EC0943030F4913071F0923009F0EF
:10013000EEC033C0953009F49FC0953008F479C003
:10014000963009F0E4C0C1C09091EC00EE0FFF1FA3
:10015000E65FFE4F20813181822F8F70892B809343
:10016000EC004091F100C901E4E096958795EA958D
:10017000E1F78F70842B8093F1009091F600832F2C
:100180008F70892B8093F6008091FB00932F9295BE
:100190009F70892B8093FB0008953091EC00EE0F47
:1001A000FF1FE65FFE4F90812181892F8295807F1E
:1001B000832B8093EC008091F100907F982B90939B
:1001C000F1009091F600822F8295807F892B809399
:1001D000F6008091FB00207F282B2093FB000895E0
:1001E0009091ED00EE0FFF1FE65FFE4F2081318101
:1001F000822F8F70892B8093ED004091F200C9010E
:1002000054E0969587955A95E1F78F70842B8093EB
:10021000F2009091F700832F8F70892B8093F70065
:100220008091FC00932F92959F70892B8093FC0006
:1002300008953091ED00EE0FFF1FE65FFE4F9081B5
:100240002181892F8295807F832B8093ED0080917F
:10025000F200907F982B9093F2009091F700822FFC
:100260008295807F892B8093F7008091FC00207F0E
:10027000282B2093FC0008959091EE00EE0FFF1FB5
:10028000E65FFE4F20813181822F8F70892B809312
:10029000EE004091F300C90124E0969587952A95D8
:1002A000E1F78F70842B8093F3009091F800832FF7
:1002B0008F70892B8093F8008091FD00932F929589
:1002C0009F70892B8093FD0008953091EE00EE0F12
:1002D000FF1FE65FFE4F90812181892F8295807FED
:1002E000832B8093EE008091F300907F982B909366
:1002F000F3009091F800822F8295807F892B809364
:10030000F8008091FD00207F282B2093FD000895A8
:100310008DB18F788DB980B38F7080BB81B3806FC2
:1003200081BB08953091540144E050E061E070E0F9
:100330008DB18F788DB92DB1CB01042E02C0880FFD
:10034000991F0A94E2F7282B2DB92EB180958223AC
:100350008EB97C9904C04430510509F431E07D998F
:1003600004C04430510509F434E07E9904C044309F
:10037000510509F437E07F9904C04430510509F470
:100380003AE07C9904C04530510509F432E07D998A
:1003900004C04530510509F435E07E9904C045306C
:1003A000510509F438E07F9904C04530510509F43E
:1003B00030E07C9904C04630510509F433E07D9962
:1003C00004C04630510509F436E07E9904C0463039
:1003D000510509F439E07F9904C04630510509F40C
:1003E0003BE04F5F5F4F4730510509F0A1CF30939D
:1003F0005401089584B114B885B1806D85B98DB16B
:1004000088708DB98EB18C608EB984B1836084B9E7
:10041000289A299A84B5826084BD80916E0081609B
:1004200080936E0080918100836080938100809131
:100430006F00816080936F008091B6008860809328
:10044000B6008091B00085608093B000809170000C
:10045000816080937000789487EB8093E50086E05C
:100460008093E6008EE48093E70080E88093E400C8
:100470000E948801FFCF1F920F920FB60F92112496
:100480002F933F934F935F936F937F938F939F939C
:10049000AF93BF93EF93FF9380918001813011F46C
:1004A000289A08C0823031F428988091EC0082604C
:1004B0008093EC0080917C01882309F069C00E9440
:1004C000680060915B0181E070E00E9489006091AA
:1004D0005A0182E070E00E9489006091590183E036
:1004E00070E00E9489006091580184E070E00E94F1
:1004F00089006091570185E070E00E948900609159
:10050000560186E070E00E94890081E08093F4004B
:100510008091EC0084608093EC008091EC0080641A
:100520008093EC001C9905C080917D018F5F8093C2
:100530007D01639905C080917D018F5F80937D016E
:10054000629905C080917D018F5F80937D011C9928
:1005500009C080917D01853029F481E080937C0180
:1005600010927D01639909C080917D01833029F447
:1005700082E180937C0110927D01629909C0809193
:100580007D01833029F484E180937C0110927D0108
:1005900080917C01823109F066C00E946800609100
:1005A000690181E070E00E9489006091680182E049
:1005B00070E00E9489006091670183E070E00E9412
:1005C00089006091660184E070E00E94890060917A
:1005D000650185E070E00E9489006091640186E019
:1005E00070E00E94890081E08093F4008091EC002B
:1005F00084608093EC00639905C080917D018F5FDA
:1006000080937D01629905C080917D018F5F809309
:100610007D011F9905C080917D018F5F80937D01D1
:10062000639909C080917D01833029F484E180932E
:100630007C0110927D01629908C080917D01833018
:1006400021F410927C0110927D011F990CC08091C1
:100650007D01833041F483E180937C0181E08093CC
:10066000860110927D0180917C01843109F069C07E
:100670000E9468006091770181E070E00E9489002B
:100680006091760182E070E00E94890060917501BE
:1006900083E070E00E9489006091740184E070E062
:1006A0000E9489006091730185E070E00E948900DA
:1006B0006091720186E070E00E94890081E0809381
:1006C000F4008091EC0080648093EC00639905C095
:1006D00080917D018F5F80937D01629905C080913B
:1006E0007D018F5F80937D011F9905C080917D0101
:1006F0008F5F80937D0163990BC080917D01833072
:1007000039F410927C0182E08093860110927D0181
:10071000629909C080917D01833029F482E1809340
:100720007C0110927D011F990CC080917D01833066
:1007300041F483E180937C0182E0809386011092F2
:100740007D0180917C01813009F05FC00E946800CA
:1007500081E06CE170E00E94890082E06EE070E070
:100760000E94890083E06DE170E00E94890085E0CD
:100770006DE170E00E9489001C9905C080917D01A7
:100780008F5F80937D01639905C080917D018F5FAC
:1007900080937D01629905C080917D018F5F809378
:1007A0007D011F9905C080917D018F5F80937D0140
:1007B0001C9908C080917D01853021F410927C0144
:1007C00010927D01639909C080917D01833029F4E5
:1007D00082E080937C0110927D01629908C0809133
:1007E0007D01833021F480937C0110927D011F995B
:1007F0000CC080917D01833041F484E080937C01C2
:1008000081E080937E0110927D0180917C01823095
:1008100009F05CC00E94680081E06DE070E00E9419
:10082000890082E06EE070E00E94890083E06FE161
:1008300070E00E94890085E061E070E00E9489001C
:100840001C9905C080917D018F5F80937D01639924
:1008500005C080917D018F5F80937D01629905C005
:1008600080917D018F5F80937D011F9905C08091EC
:100870007D018F5F80937D011C9908C080917D016F
:10088000853021F410927C0110927D01639908C09B
:1008900080917D01833021F480937C0110927D0151
:1008A000629909C080917D01833029F481E08093B1
:1008B0007C0110927D011F9909C080917D018330D8
:1008C00029F48AE080937C0110927D0180917C0163
:1008D000833009F05DC00E94680081E06DE070E047
:1008E0000E94890082E06EE070E00E94890083E04F
:1008F0006FE170E00E94890085E062E070E00E9494
:1009000089001C9905C080917D018F5F80937D01D6
:10091000639905C080917D018F5F80937D0162990D
:1009200005C080917D018F5F80937D011F9905C077
:1009300080917D018F5F80937D011C9908C080911B
:100940007D01853021F410927C0110927D01639924
:1009500009C080917D01833029F481E080937C017E
:1009600010927D01629909C080917D01833029F444
:1009700082E080937C0110927D011F9909C08091D3
:100980007D01833029F485E180937C0110927D0103
:1009900080917C01843009F0E0C00E94680081E011
:1009A00064E270E00E94890082E064E270E00E94EC
:1009B000890083E064E270E00E94890084E064E2E0
:1009C00070E00E94890085E064E270E00E94890086
:1009D00086E064E270E00E94890081E08093F40088
:1009E00090917E01923031F0933021F0943011F0EB
:1009F000953021F48091EC0084600BC0963031F08A
:100A0000973021F0983011F0993029F48091EC0062
:100A100080648093EC001C9905C080917D018F5FFC
:100A200080937D011E9905C080917D018F5F809329
:100A30007D011C9908C080917D01853021F41092C0
:100A40007C0110927D011E990AC080917D01853044
:100A500031F4913021F490937C0110927D011E9924
:100A60000BC080917D01853039F4923029F48CE0FF
:100A700080937C0110927D011E990BC080917D01B5
:100A8000853039F4933029F48DE080937C01109205
:100A90007D011E990BC080917D01853039F4943021
:100AA00029F480E180937C0110927D011E990BC096
:100AB00080917D01853039F4953029F481E180936E
:100AC0007C0110927D011E990BC080917D018530C3
:100AD00039F4963029F487E180937C0110927D01EE
:100AE0001E990BC080917D01853039F4973029F42F
:100AF00088E180937C0110927D011E990BC080914A
:100B00007D01853039F4983029F48BE180937C01A4
:100B100010927D011E990BC080917D01853039F4C2
:100B2000993029F48CE180937C0110927D018091B1
:100B30005401833040F480937B018CE08093540116
:100B400085E080937C01809154018A3031F48CE0FF
:100B50008093540184E080937C0180917C018530F6
:100B600009F0F5C00E94680060917B0181E070E0AF
:100B70000E94890082E064E270E00E94890083E0C4
:100B800064E270E00E94890084E064E270E00E9408
:100B9000890085E060E070E00E94890086E060E006
:100BA00070E00E94890081E08093F40090917E01C2
:100BB000923031F0933021F0943011F0953021F4DF
:100BC0008091EC0084600BC0963031F0973021F0BA
:100BD000983011F0993029F48091EC008064809372
:100BE000EC001C9905C080917D018F5F80937D0191
:100BF0001E9905C080917D018F5F80937D011C99B6
:100C000008C080917D01853021F410927C01109202
:100C10007D011E990AC080917D01853031F49130AB
:100C200021F490937C0110927D011E990BC080915C
:100C30007D01853039F4923029F48CE080937C0179
:100C400010927D011E990BC080917D01853039F491
:100C5000933029F48DE080937C0110927D011E99E0
:100C60000BC080917D01853039F4943029F480E106
:100C700080937C0110927D011E990BC080917D01B3
:100C8000853039F4953029F481E180937C0110920C
:100C90007D011E990BC080917D01853039F496301D
:100CA00029F487E180937C0110927D011E990BC08D
:100CB00080917D01853039F4973029F488E1809363
:100CC0007C0110927D011E990BC080917D018530C1
:100CD00039F4983029F48BE180937C0110927D01E6
:100CE0001E990BC080917D01853039F4993029F42B
:100CF0008CE180937C0110927D0180917B01823098
:100D000060F4809154018A3040F480937A018CE041
:100D10008093540186E080937C0180917B01823036
:100D200061F480915401843040F480937A018CE026
:100D30008093540186E080937C01809154018A3035
:100D400031F48CE08093540184E080937C018091A5
:100D50007C01863009F0E2C00E94680060917B014E
:100D600081E070E00E94890060917A0182E070E089
:100D70000E94890083E064E270E00E94890084E0C0
:100D800064E270E00E94890085E060E070E00E940B
:100D9000890086E060E070E00E94890081E0809335
:100DA000F40090917E01923031F0933021F0943034
:100DB00011F0953021F48091EC0084600BC09630E6
:100DC00031F0973021F0983011F0993029F480916A
:100DD000EC0080648093EC001C9905C080917D013B
:100DE0008F5F80937D011E9905C080917D018F5F8B
:100DF00080937D011C9908C080917D01853021F48C
:100E000010927C0110927D011E990AC080917D0193
:100E1000853031F4913021F490937C0110927D0162
:100E20001E990BC080917D01853039F4923029F4F0
:100E30008CE080937C0110927D011E990BC0809103
:100E40007D01853039F4933029F48DE080937C0165
:100E500010927D011E990BC080917D01853039F47F
:100E6000943029F480E180937C0110927D011E99D9
:100E70000BC080917D01853039F4953029F481E1F2
:100E800080937C0110927D011E990BC080917D01A1
:100E9000853039F4963029F487E180937C011092F3
:100EA0007D011E990BC080917D01853039F497300A
:100EB00029F488E180937C0110927D011E990BC07A
:100EC00080917D01853039F4983029F48BE180934D
:100ED0007C0110927D011E990BC080917D018530AF
:100EE00039F4993029F48CE180937C0110927D01D2
:100EF00080915401863040F4809379018CE0809396
:100F0000540187E080937C01809154018A3031F450
:100F10008CE08093540184E080937C0180917C017B
:100F2000873009F0E3C00E94680060917B0181E096
:100F300070E00E94890060917A0182E070E00E9476
:100F400089006091790183E070E00E94890084E06B
:100F500064E270E00E94890085E060E070E00E9439
:100F6000890086E060E070E00E94890081E0809363
:100F7000F40090917E01923031F0933021F0943062
:100F800011F0953021F48091EC0084600BC0963014
:100F900031F0973021F0983011F0993029F4809198
:100FA000EC0080648093EC001C9905C080917D0169
:100FB0008F5F80937D011E9905C080917D018F5FB9
:100FC00080937D011C9908C080917D01853021F4BA
:100FD00010927C0110927D011E990AC080917D01C2
:100FE000853031F4913021F490937C0110927D0191
:100FF0001E990BC080917D01853039F4923029F41F
:101000008CE080937C0110927D011E990BC0809131
:101010007D01853039F4933029F48DE080937C0193
:1010200010927D011E990BC080917D01853039F4AD
:10103000943029F480E180937C0110927D011E9907
:101040000BC080917D01853039F4953029F481E120
:1010500080937C0110927D011E990BC080917D01CF
:10106000853039F4963029F487E180937C01109221
:101070007D011E990BC080917D01853039F4973038
:1010800029F488E180937C0110927D011E990BC0A8
:1010900080917D01853039F4983029F48BE180937B
:1010A0007C0110927D011E990BC080917D018530DD
:1010B00039F4993029F48CE180937C0110927D0100
:1010C000809154018A3040F4809378018CE08093C1
:1010D000540188E080937C01809154018A3031F47E
:1010E0008CE08093540184E080937C0180917C01AA
:1010F000883009F0E2C00E94680060917B0181E0C5
:1011000070E00E94890060917A0182E070E00E94A4
:1011100089006091790183E070E00E94890060910C
:10112000780184E070E00E94890085E060E070E072
:101130000E94890086E060E070E00E94890081E002
:101140008093F40090917E01923031F0933021F041
:10115000943011F0953021F48091EC0084600BC044
:10116000963031F0973021F0983011F0993029F411
:101170008091EC0080648093EC001C9905C0809104
:101180007D018F5F80937D011E9905C080917D0157
:101190008F5F80937D011C9908C080917D0185300F
:1011A00021F410927C0110927D011E990AC0809159
:1011B0007D01853031F4913021F490937C011092BF
:1011C0007D011E990BC080917D01853039F49230EC
:1011D00029F48CE080937C0110927D011E990BC054
:1011E00080917D01853039F4933029F48DE080932E
:1011F0007C0110927D011E990BC080917D0185308C
:1012000039F4943029F480E180937C0110927D01BF
:101210001E990BC080917D01853039F4953029F4F9
:1012200081E180937C0110927D011E990BC0809119
:101230007D01853039F4963029F487E180937C0173
:1012400010927D011E990BC080917D01853039F48B
:10125000973029F488E180937C0110927D011E99DA
:101260000BC080917D01853039F4983029F48BE1F1
:1012700080937C0110927D011E990BC080917D01AD
:10128000853039F4993029F48CE180937C011092F7
:101290007D01809154018A3031F48CE080935401B7
:1012A00084E080937C01809154018B3031F48CE098
:1012B0008093540189E080937C0180917C01893086
:1012C00009F01CC10E94680081E06DE170E00E949D
:1012D000890083E06CE170E00E94890084E06EE0A8
:1012E00070E00E94890085E06DE170E00E94890055
:1012F00080917E01823049F0833039F0843049F4A6
:101300008091EC0084608093EC008091EC0084601C
:101310000DC08530D1F3863031F0873021F0883030
:1013200011F0893029F48091EC0080648093EC0006
:1013300080917F018F5F80937F01843008F4DEC04D
:1013400080917E018130B1F41092560110925701C4
:10135000809178018093580180917901809359019F
:1013600080917A0180935A0180917B0180935B0187
:1013700010927C0180917E01823099F480917801F5
:1013800080935C018091790180935D0180917A0165
:1013900080935E0180917B0180935F018DE080935B
:1013A0007C0180917E01833099F480917801809353
:1013B0006001809179018093610180917A0180932D
:1013C000620180917B01809363018EE080937C01B8
:1013D00080917E018430B1F4809178018093660120
:1013E000809179018093670180917A0180936801EF
:1013F00080917B018093690181E08093800182E18B
:1014000080937C0180917E018530B1F480917801D8
:1014100080936601809179018093670180917A01C0
:101420008093680180917B018093690182E08093C1
:10143000800182E180937C0180917E01863099F465
:101440008091780180936A018091790180936B018A
:1014500080917A0180936C0180917B0180936D0172
:1014600088E180937C0180917E01873099F480919E
:10147000780180936E018091790180936F01809152
:101480007A018093700180917B018093710189E1E1
:1014900080937C0180917E018830B1F48091780145
:1014A00080937401809179018093750180917A0114
:1014B0008093760180917B018093770181E0809316
:1014C000810184E180937C0180917E018930B1F4B7
:1014D00080917801809374018091790180937501E6
:1014E00080917A018093760180917B0180937701CE
:1014F00082E08093810184E180937C0180917C0172
:101500008A3009F079C00E94680081E06DE170E0E6
:101510000E94890082E062E170E00E94890083E01D
:1015200066E170E00E94890084E06EE070E00E9455
:10153000890085E06DE070E00E9489008091EC00F8
:1015400084608093EC001C9905C080917D018F5FC1
:1015500080937D01639905C080917D018F5F8093A9
:101560007D01629905C080917D018F5F80937D012F
:101570001F9905C080917D018F5F80937D011E9929
:1015800005C080917D018F5F80937D011C9908C00B
:1015900080917D01853021F410927C0110927D01B3
:1015A000639909C080917D01833029F48BE0809399
:1015B0007C0110927D01629909C080917D01833088
:1015C00029F48BE080937C0110927D011F9909C062
:1015D00080917D01833029F48CE080937C0110920E
:1015E0007D011E9909C080917D01833029F482E03C
:1015F00080937C0110927D0180917C018B3009F0F9
:1016000079C00E94680081E06CE070E00E9489006F
:1016100083E06DE070E00E94890084E068E170E0A2
:101620000E94890085E060E270E00E94890086E007
:1016300067E170E00E9489008091EC0084608093F3
:10164000EC001C9905C080917D018F5F80937D0126
:10165000639905C080917D018F5F80937D016299C0
:1016600005C080917D018F5F80937D011F9905C02A
:1016700080917D018F5F80937D011E9905C08091CF
:101680007D018F5F80937D011C9908C080917D0151
:10169000853021F410927C0110927D01639909C07C
:1016A00080917D01833029F48AE080937C0110923F
:1016B0007D01629909C080917D01833029F48AE01F
:1016C00080937C0110927D011F9909C080917D015A
:1016D000833029F480E180937C0110927D011E9972
:1016E00009C080917D01833029F482E080937C01E0
:1016F00010927D0180917C018C3009F077C00E94AE
:10170000680081E068E170E00E94890082E067E1A2
:1017100070E00E94890084E06AE070E00E94890025
:1017200085E06DE170E00E9489008091EC008460AA
:101730008093EC001C9905C080917D018F5F8093A0
:101740007D01639905C080917D018F5F80937D014C
:10175000629905C080917D018F5F80937D011F9903
:1017600005C080917D018F5F80937D011E9905C02A
:1017700080917D018F5F80937D011C9908C08091CD
:101780007D01853021F410927C0110927D016399D6
:1017900009C080917D01833029F48DE080937C0124
:1017A00010927D01629909C080917D01833029F4F6
:1017B0008EE080937C0110927D011F990CC0809176
:1017C0007D01833041F484E080937C0182E080934A
:1017D0007E0110927D011E9909C080917D018330A8
:1017E00029F48AE080937C0110927D0180917C0134
:1017F0008D3009F07BC00E94680081E068E170E0F4
:101800000E94890082E06FE070E00E94890083E01E
:101810006FE070E00E94890085E06AE070E00E945D
:10182000890086E06DE170E00E9489008091EC0003
:1018300084608093EC001C9905C080917D018F5FCE
:1018400080937D01639905C080917D018F5F8093B6
:101850007D01629905C080917D018F5F80937D013C
:101860001F9905C080917D018F5F80937D011E9936
:1018700005C080917D018F5F80937D011C9908C018
:1018800080917D01853021F410927C0110927D01C0
:10189000639909C080917D01833029F48EE08093A3
:1018A0007C0110927D01629909C080917D01833095
:1018B00029F48CE080937C0110927D011F990BC06C
:1018C00090917D01933039F484E080937C01909372
:1018D0007E0110927D011E9909C080917D018330A7
:1018E00029F48AE080937C0110927D0180917C0133
:1018F0008E3009F07BC00E94680081E06CE070E0EF
:101900000E94890082E061E170E00E94890083E02A
:101910006EE070E00E94890084E06CE070E00E945C
:10192000890085E064E170E00E9489008091EC000C
:1019300084608093EC001C9905C080917D018F5FCD
:1019400080937D01639905C080917D018F5F8093B5
:101950007D01629905C080917D018F5F80937D013B
:101960001F9905C080917D018F5F80937D011E9935
:1019700005C080917D018F5F80937D011C9908C017
:1019800080917D01853021F410927C0110927D01BF
:10199000639909C080917D01833029F48CE08093A4
:1019A0007C0110927D01629909C080917D01833094
:1019B00029F48DE080937C0110927D011F990BC06A
:1019C00080917D01833039F48FE080937C01109207
:1019D0007F0110927D011E9909C080917D018330A5
:1019E00029F48AE080937C0110927D0180917C0132
:1019F0008F3009F0D2C080917F01853000F50E94C0
:101A0000680081E068E170E00E94890082E067E19F
:101A100070E00E94890084E06AE070E00E94890022
:101A200085E06DE170E00E9489008091EC008460A7
:101A30008093EC0080917F018F5F80937F01809184
:101A40007F018550853088F50E94680060915F01B4
:101A500081E070E00E94890060915E0182E070E0A8
:101A60000E94890060915D0183E070E00E9489001E
:101A700060915C0184E070E00E94890085E060E094
:101A800070E00E94890086E060E070E00E948900BA
:101A900081E08093F4008091EC0084608093EC00FE
:101AA00080917F018F5F80937F0180917F018A50B9
:101AB000853028F50E94680081E068E170E00E94AE
:101AC000890082E06FE070E00E94890083E06FE0AF
:101AD00070E00E94890085E06AE070E00E94890061
:101AE00086E06DE170E00E9489008091EC008460E6
:101AF0008093EC0080917F018F5F80937F018091C4
:101B00007F018F50853088F50E94680060916301E5
:101B100081E070E00E9489006091620182E070E0E3
:101B20000E9489006091610183E070E00E94890059
:101B30006091600184E070E00E94890085E060E0CF
:101B400070E00E94890086E060E070E00E948900F9
:101B500081E08093F4008091EC0084608093EC003D
:101B600080917F018F5F80937F0180917F0184311D
:101B700018F08EE080937C011C9905C080917D0156
:101B80008F5F80937D011C9908C080917D01853015
:101B900021F410927C0110927D0180917C018031B2
:101BA00009F076C00E94680081E068E170E00E9460
:101BB000890082E067E170E00E94890084E062E1D0
:101BC00070E00E94890085E067E170E00E94890072
:101BD0008091EC0084608093EC001C9905C080919A
:101BE0007D018F5F80937D01639905C080917D01A8
:101BF0008F5F80937D01629905C080917D018F5F29
:101C000080937D011F9905C080917D018F5F809336
:101C10007D011E9905C080917D018F5F80937D01BC
:101C20001C9908C080917D01853021F410927C01BF
:101C300010927D01639909C080917D01833029F460
:101C400081E180937C0110927D01629909C08091AD
:101C50007D01833029F481E180937C0110927D0124
:101C60001F990BC080917D01833039F484E080930B
:101C70007C0180937E0110927D011E9909C08091A4
:101C80007D01833029F48BE080937C0110927D01EB
:101C900080917C01813109F07CC00E94680081E064
:101CA00068E170E00E94890082E06FE070E00E94CD
:101CB000890083E06FE070E00E94890085E062E1C6
:101CC00070E00E94890086E067E170E00E94890070
:101CD0008091EC0084608093EC001C9905C0809199
:101CE0007D018F5F80937D01639905C080917D01A7
:101CF0008F5F80937D01629905C080917D018F5F28
:101D000080937D011F9905C080917D018F5F809335
:101D10007D011E9905C080917D018F5F80937D01BB
:101D20001C9908C080917D01853021F410927C01BE
:101D300010927D01639909C080917D01833029F45F
:101D400080E180937C0110927D01629909C08091AD
:101D50007D01833029F480E180937C0110927D0124
:101D60001F990CC080917D01833041F484E0809301
:101D70007C0185E080937E0110927D011E9909C04F
:101D800080917D01833029F48BE080937C01109257
:101D90007D0180917C01833109F05DC00E94680063
:101DA00081E06CE070E00E94890082E065E170E013
:101DB0000E94890083E06EE070E00E94890084E068
:101DC0006AE070E00E94890085E06BE170E00E94AB
:101DD000890080918601813021F48091EC0084603B
:101DE00005C0823029F48091EC0080648093EC007F
:101DF00080917F018F5F80937F01843060F18091BB
:101E00008601813091F41092800110926401109249
:101E1000650110926601109267011092680110929C
:101E200069011092820110927C01809186018230BA
:101E300091F410928101109272011092730110922C
:101E40007401109275011092760110927701109230
:101E5000830110927C0180917C01853109F078C06A
:101E60000E94680081E06DE170E00E94890082E0DC
:101E700062E170E00E94890083E066E170E00E9408
:101E8000890084E06EE070E00E94890085E06DE0EA
:101E900070E00E9489008091EC0080648093EC00E7
:101EA0001C9905C080917D018F5F80937D016399AE
:101EB00005C080917D018F5F80937D01629905C08F
:101EC00080917D018F5F80937D011F9905C0809176
:101ED0007D018F5F80937D011E9905C080917D01FA
:101EE0008F5F80937D011C9908C080917D018530B2
:101EF00021F410927C0110927D01639909C08091B8
:101F00007D01833029F486E180937C0110927D016C
:101F1000629909C080917D01833029F486E1809324
:101F20007C0110927D011F9909C080917D01833051
:101F300029F487E180937C0110927D011E9908C0ED
:101F400080917D01833021F480937C0110927D018A
:101F500080917C01863109F078C00E94680081E0A0
:101F60006CE070E00E94890083E06DE070E00E9408
:101F7000890084E068E170E00E94890085E060E209
:101F800070E00E94890086E067E170E00E948900AD
:101F90008091EC0080648093EC001C9905C08091D6
:101FA0007D018F5F80937D01639905C080917D01E4
:101FB0008F5F80937D01629905C080917D018F5F65
:101FC00080937D011F9905C080917D018F5F809373
:101FD0007D011E9905C080917D018F5F80937D01F9
:101FE0001C9908C080917D01853021F410927C01FC
:101FF00010927D01639909C080917D01833029F49D
:1020000085E180937C0110927D01629909C08091E5
:102010007D01833029F485E180937C0110927D015C
:102020001F9909C080917D01833029F48BE1809351
:102030007C0110927D011E9908C080917D01833042
:1020400021F480937C0110927D0180917C01873185
:1020500009F077C00E94680081E068E170E00E94AA
:10206000890082E067E170E00E94890084E06AE014
:1020700070E00E94890085E06DE170E00E948900B7
:102080008091EC0080648093EC001C9905C08091E5
:102090007D018F5F80937D01639905C080917D01F3
:1020A0008F5F80937D01629905C080917D018F5F74
:1020B00080937D011F9905C080917D018F5F809382
:1020C0007D011E9905C080917D018F5F80937D0108
:1020D0001C9908C080917D01853021F410927C010B
:1020E00010927D01639909C080917D01833029F4AC
:1020F00088E180937C0110927D01629909C08091F2
:102100007D01833029F489E180937C0110927D0167
:102110001F990CC080917D01833041F484E080934D
:102120007C0186E080937E0110927D011E9909C09A
:1021300080917D01833029F485E180937C011092A8
:102140007D0180917C01883109F07CC00E9468008B
:1021500081E068E170E00E94890082E06FE070E059
:102160000E94890083E06FE070E00E94890085E0B2
:102170006AE070E00E94890086E06DE170E00E94F4
:1021800089008091EC0080648093EC001C9905C06C
:1021900080917D018F5F80937D01639905C080915F
:1021A0007D018F5F80937D01629905C080917D01E3
:1021B0008F5F80937D011F9905C080917D018F5FA6
:1021C00080937D011E9905C080917D018F5F809372
:1021D0007D011C9908C080917D01853021F4109209
:1021E0007C0110927D01639909C080917D0183304B
:1021F00029F489E180937C0110927D01629909C0E4
:1022000080917D01833029F487E180937C011092D5
:102210007D011F990CC080917D01833041F484E0E1
:1022200080937C0187E080937E0110927D011E994E
:1022300009C080917D01833029F485E180937C0180
:1022400010927D0180917C01893109F07BC00E9450
:10225000680081E06CE070E00E94890082E061E14A
:1022600070E00E94890083E06EE070E00E948900C7
:1022700084E06CE070E00E94890085E064E170E039
:102280000E9489008091EC0080648093EC001C998E
:1022900005C080917D018F5F80937D01639905C0AA
:1022A00080917D018F5F80937D01629905C080914F
:1022B0007D018F5F80937D011F9905C080917D0115
:1022C0008F5F80937D011E9905C080917D018F5F96
:1022D00080937D011C9908C080917D01853021F497
:1022E00010927C0110927D01639909C080917D015B
:1022F000833029F487E180937C0110927D016299FB
:1023000009C080917D01833029F488E180937C01AC
:1023100010927D011F990BC080917D01833039F4AB
:102320008AE180937C0110927F0110927D011E99B9
:1023300009C080917D01833029F485E180937C017F
:1023400010927D0180917C018A3109F0D2C0809188
:102350007F01853000F50E94680081E068E170E04F
:102360000E94890082E067E170E00E94890084E0B9
:102370006AE070E00E94890085E06DE170E00E94F3
:1023800089008091EC0080648093EC0080917F0153
:102390008F5F80937F0180917F018550853088F524
:1023A0000E94680060916D0181E070E00E948900E8
:1023B00060916C0182E070E00E94890060916B0185
:1023C00083E070E00E94890060916A0184E070E01F
:1023D0000E94890085E060E070E00E94890086E04C
:1023E00060E070E00E94890081E08093F4008091B9
:1023F000EC0080648093EC0080917F018F5F80937C
:102400007F0180917F018A50853028F50E94680005
:1024100081E068E170E00E94890082E06FE070E096
:102420000E94890083E06FE070E00E94890085E0EF
:102430006AE070E00E94890086E06DE170E00E9431
:1024400089008091EC0080648093EC0080917F0192
:102450008F5F80937F0180917F018F50853088F559
:102460000E9468006091710181E070E00E94890023
:102470006091700182E070E00E94890060916F01BC
:1024800083E070E00E94890060916E0184E070E05A
:102490000E94890085E060E070E00E94890086E08B
:1024A00060E070E00E94890081E08093F4008091F8
:1024B000EC0080648093EC0080917F018F5F8093BB
:1024C0007F0180917F01843118F089E180937C0144
:1024D0001C9905C080917D018F5F80937D011C99BF
:1024E00008C080917D01853021F410927C0110920A
:1024F0007D0180917C018B3109F077C00E946800DA
:1025000081E068E170E00E94890082E067E170E0AC
:102510000E94890084E062E170E00E94890085E009
:1025200067E170E00E9489008091EC0080648093F4
:10253000EC001C9905C080917D018F5F80937D0127
:10254000639905C080917D018F5F80937D016299C1
:1025500005C080917D018F5F80937D011F9905C02B
:1025600080917D018F5F80937D011E9905C08091D0
:102570007D018F5F80937D011C9908C080917D0152
:10258000853021F410927C0110927D01639909C07D
:1025900080917D01833029F48CE180937C0110923D
:1025A0007D01629909C080917D01833029F48CE11D
:1025B00080937C0110927D011F990CC080917D0158
:1025C000833041F484E080937C0188E080937E0135
:1025D00010927D011E9909C080917D01833029F4FC
:1025E00086E180937C0110927D0180917C018C3189
:1025F00009F07CC00E94680081E068E170E00E9400
:10260000890082E06FE070E00E94890083E06FE063
:1026100070E00E94890085E062E170E00E9489001C
:1026200086E067E170E00E9489008091EC008064A0
:102630008093EC001C9905C080917D018F5F809391
:102640007D01639905C080917D018F5F80937D013D
:10265000629905C080917D018F5F80937D011F99F4
:1026600005C080917D018F5F80937D011E9905C01B
:1026700080917D018F5F80937D011C9908C08091BE
:102680007D01853021F410927C0110927D016399C7
:1026900009C080917D01833029F48BE180937C0116
:1026A00010927D01629909C080917D01833029F4E7
:1026B0008BE180937C0110927D011F990CC0809169
:1026C0007D01833041F484E080937C0189E0809334
:1026D0007E0110927D011E9909C080917D01833099
:1026E00029F486E180937C0110927D018091800124
:1026F000813011F4289A08C0823031F428988091F2
:10270000EC0082608093EC0080918101813011F4B3
:10271000299A08C0823031F429988091EC008062B7
:102720008093EC00FF91EF91BF91AF919F918F91BA
:102730007F916F915F914F913F912F910F900FBEBD
:102740000F901F9018951F920F920FB60F921124A1
:102750002F938F939F93809156018F5F80935601A3
:102760008A3039F410925601809157018F5F80931F
:10277000570180915601882369F480915701863072
:1027800049F4809158018F5F80935801109256014F
:1027900010925701809158018A3039F410925801F3
:1027A000809159018F5F809359018091580188234E
:1027B00069F480915901863049F480915A018F5F04
:1027C00080935A01109258011092590180915A0138
:1027D0008A3039F410925A0180915B018F5F8093A7
:1027E0005B0180915A01843041F480915B01823019
:1027F00021F410925A0110925B0120918001222352
:1028000009F47CC080918201882309F077C010927E
:102810008501909169019923A1F480916801882331
:1028200081F480916701882361F480916601882397
:1028300041F480916501882321F48091640188230B
:1028400041F081E080938501809164018150809303
:102850006401809164018F3F41F480916501815052
:102860008093650189E080936401809165018F3FC9
:1028700041F485E0809365018091660181508093E9
:102880006601809166018F3F41F48091670181501C
:102890008093670189E080936601809167018F3F93
:1028A00041F485E0809367018091680181508093B5
:1028B0006801809168018F3F31F4915090936901D4
:1028C00089E080936801809169018F3F39F410920B
:1028D0006901809168018150809368018091850130
:1028E000882361F4213011F482E003C0223019F40E
:1028F00081E08093800181E08093820120918101B9
:10290000222309F47CC080918301882309F077C0D9
:1029100010928401909177019923A1F4809176011E
:10292000882381F480917501882361F4809174017A
:10293000882341F480917301882321F480917201EE
:10294000882341F081E0809384018091720181505D
:1029500080937201809172018F3F41F480917301E5
:1029600081508093730189E080937201809173019B
:102970008F3F41F485E08093730180917401815011
:1029800080937401809174018F3F41F480917501AF
:1029900081508093750189E0809374018091750165
:1029A0008F3F41F485E080937501809176018150DD
:1029B00080937601809176018F3F31F4915090930E
:1029C000770189E080937601809177018F3F39F418
:1029D00010927701809176018150809376018091E9
:1029E0008401882361F4213011F482E003C0223095
:1029F00019F481E08093810181E0809383019F91AC
:102A00008F912F910F900FBE0F901F9018958F925E
:102A1000AF92CF92EF92FF920F931F93DF93CF93DA
:102A2000CDB7DEB7382FE62F142FF22E809180011C
:102A3000882309F069C02AE0029FC00111248E0D8D
:102A4000911D6CE370E0869FD001879FB00D969F2B
:102A5000B00D1124C29EC0011124A80FB91FAA0DE8
:102A6000B11D829EC00111244C85840F911D869F4B
:102A7000A001879F500D969F500D11248D85829F38
:102A8000C0011124480F591F8E85480F511D329FD8
:102A9000C00111248E0F911D869FF001879FF00DBC
:102AA000969FF00D1124129F90011124E20FF31F45
:102AB000EF0DF11DA417B50770F4EA17FB0750F0EE
:102AC000E417F50738F428988091EC008260809331
:102AD000EC0001C0289A4A175B0790F4EA17FB073D
:102AE00020F085E0E03AF80718F0E417F50738F42D
:102AF00028988091EC0082608093EC0001C0289AB5
:102B0000A417B50709F4289ACF91DF911F910F916F
:102B1000FF90EF90CF90AF908F9008958F92AF92EB
:102B2000CF92EF92FF920F931F93DF93CF93CDB786
:102B3000DEB7382FE62F142FF22E809181018823E3
:102B400009F069C02AE0029FC00111248E0D911D79
:102B50006CE370E0869FD001879FB00D969FB00D0B
:102B60001124C29EC0011124A80FB91FAA0DB11DC6
:102B7000829EC00111244C85840F911D869FA00167
:102B8000879F500D969F500D11248D85829FC00107
:102B90001124480F591F8E85480F511D329FC001C7
:102BA00011248E0F911D869FF001879FF00D969F37
:102BB000F00D1124129F90011124E20FF31FEF0D6D
:102BC000F11DA417B50770F4EA17FB0750F0E417DE
:102BD000F50738F429988091EC0080628093EC002E
:102BE00001C0299A4A175B0790F4EA17FB0720F007
:102BF00085E0E03AF80718F0E417F50738F429986B
:102C00008091EC0080628093EC0001C0299AA417A7
:102C1000B50709F4299ACF91DF911F910F91FF9089
:102C2000EF90CF90AF908F9008951F920F920FB6B4
:102C30000F9211248F92AF92CF92EF920F932F9316
:102C40003F934F935F936F937F938F939F93AF9334
:102C5000BF93EF93FF938CE0809354010E94920105
:102C600000D00F92EDB7FEB7319680916201ADB7FB
:102C7000BEB711968C938091610181838091600130
:102C8000828380915B0160915A01409159012091AA
:102C9000580100915F01E0905E01C0905D01A0903D
:102CA0005C01809063010E940715EDB7FEB7319675
:102CB00080917001ADB7BEB711968C9380916F0172
:102CC000818380916E01828380915B0160915A01C2
:102CD000409159012091580100916D01E0906C01E3
:102CE000C0906B01A0906A01809071010E948E15C6
:102CF0000F900F900F90FF91EF91BF91AF919F9127
:102D00008F917F916F915F914F913F912F910F9193
:102D1000EF90CF90AF908F900F900FBE0F901F90BD
:062D20001895F894FFCFA6
:102D26000001020304050607080959551801111E7A
:102D3600111B500B411B411F1101511F511B510FFC
:102D4600913941149131411E410E411D500F802091
:102D5600101548864014780570855115510E519509
:102D6600518E219081205015484450C528C02820F6
:062D7600095000100C00E2
:00000001FF
