:100000000C9465000C9482000C9482000C94820085
:100010000C9482000C9482000C9482000C94820058
:100020000C9482000C9482000C9482000C94820048
:100030000C9482000C9453070C9497070C94820044
:100040000C9482000C9482000C9482000C94820028
:100050000C9482000C9482000C940206510A802AAF
:100060000000000A0040000059551801111E111B24
:10007000500B411B411F1101511F511B000000007B
:1000800000000000000000000000510F91394114F1
:100090009131411E410E411D500F802010154886A0
:1000A0004014780570855115510E5195518E21904F
:1000B00081205015484450C528C028200950000010
:1000C0000000000000000000000011241FBECFEF60
:1000D000D4E0DEBFCDBF11E0A0E0B1E0ECE4F0E29F
:1000E00002C005900D92AC36B107D9F712E0ACE62C
:1000F000B1E001C01D92AF37B107E1F70E9494094A
:100100000C9424100C940000DF93CF9300D000D007
:10011000CDB7DEB71C821B8280E095E09A8389838D
:100120000FC089819A8102979A838983E981FA8134
:10013000208131818B819C81822793279C838B83B3
:1001400021E832E089819A818217930750F78B81E9
:100150009C81CC01A0E0B0E0BC01CD010E94880FE1
:100160000F900F900F900F90CF91DF910895DF9334
:10017000CF93CDB7DEB7A4E2B0E0E4E2F0E0808157
:100180008F728C93ADE2B0E0EDE2F0E08081837F8E
:100190008C93A5E2B0E0E5E2F0E08081806D8C9385
:1001A000AEE2B0E0EEE2F0E080818C608C93A3E2FE
:1001B000B0E0E3E2F0E08081806D8C93ACE2B0E0EF
:1001C000ECE2F0E080818C608C93E7E2F0E08FEF6E
:1001D0008083E8E2F0E08FEF80830E948400A4E255
:1001E000B0E0E4E2F0E0808180628C93CF91DF9117
:1001F0000895DF93CF93CDB7DEB727970FB6F89466
:10020000DEBF0FBECDBF8F838F81882F90E09C0112
:10021000220F331FC901880F991F880F991F820F62
:10022000931F9C838B831E821D820FC088E893E1FD
:100230009A83898389819A810197F1F79A838983C7
:100240008D819E8101969E838D832D813E818B8140
:100250009C812817390750F327960FB6F894DEBF14
:100260000FBECDBFCF91DF910895DF93CF930F9253
:10027000CDB7DEB784E08983AAE7B0E0EAE7F0E033
:100280008081887F8C93AAE7B0E0EAE7F0E0908174
:100290008981892B8C930F90CF91DF910895DF9303
:1002A000CF9300D000D000D0CDB7DEB79C838B8336
:1002B0007E836D838B819C81880F991F9C014427CD
:1002C00037FD4095542F80E492E4AFE0B0E0BC01EC
:1002D000CD010E94B00FDA01C9019A838983E6E853
:1002E000F0E089819A8191838083E0E8F0E080E802
:1002F0008083E1E8F0E080E18083A1E8B0E0E1E81C
:10030000F0E0808181608C938D819E819C01220F21
:10031000331FC901880F991F880F991F820F931FE0
:100320000E94F900A1E8B0E0E1E8F0E080818E7F72
:100330008C9326960FB6F894DEBF0FBECDBFCF913B
:10034000DF910895DF93CF93CDB7DEB7A5E2B0E09C
:10035000E5E2F0E080818F608C93A4E2B0E0E4E21B
:10036000F0E0808187608C93EDE4F0E081E08083B1
:10037000ECE4F0E08CE58083CF91DF910895DF938A
:10038000CF9300D0CDB7DEB78A83EEE4F0E08A8168
:100390008083EDE4F0E080818823DCF7EEE4F0E098
:1003A0008081898389810F900F90CF91DF9108958B
:1003B000DF93CF9300D0CDB7DEB7A5E2B0E0E5E2A2
:1003C000F0E0808181608C93A5E2B0E0E5E2F0E0AE
:1003D00080818E7F8C9387E50E94BF018A8380E0B5
:1003E0000E94BF018A838A81882F90E08873907071
:1003F0009595879595958795959587958983898115
:10040000882F90E0FC01E050FF4F8081809316021E
:100410008981882F90E0880F991FFC01E85FFE4FCB
:100420008081918190931802809317028A810F90A6
:100430000F90CF91DF910895DF93CF9300D00F926B
:10044000CDB7DEB79A8389836B83A5E2B0E0E5E29E
:10045000F0E0808181608C93A5E2B0E0E5E2F0E01D
:1004600080818E7F8C938B81813049F583E50E945A
:10047000BF0180911602282F30E080E190E0AC01AE
:10048000421B530B9A0189819A8102C096958795E8
:100490002A95E2F70E94BF0180911602882F90E012
:1004A0009C012850304089819A8102C0880F991F91
:1004B0002A95E2F70E94BF0180E00E94BF01A5E2F9
:1004C000B0E0E5E2F0E0808181608C93A5E2B0E0ED
:1004D000E5E2F0E080818E7F8C930E94D801882332
:1004E000E4F70F900F900F90CF91DF910895DF9375
:1004F000CF9300D000D0CDB7DEB78A837C836B83E7
:10050000A5E2B0E0E5E2F0E0808181608C93A5E2B5
:10051000B0E0E5E2F0E080818E7F8C938A818130CB
:10052000B1F484E50E94BF0180E00E94BF018B818D
:100530009C81892F99270E94BF018B810E94BF0156
:1005400080E00E94BF0180E00E94BF018983898111
:100550000F900F900F900F90CF91DF910895DF9340
:10056000CF93CDB7DEB729970FB6F894DEBF0FBE95
:10057000CDBF8B837D836C835F834E8339872887D0
:10058000A5E2B0E0E5E2F0E0808181608C93A5E235
:10059000B0E0E5E2F0E080818E7F8C938B8181304A
:1005A00061F584E50E94BF0180E00E94BF018C815B
:1005B0009D81892F99270E94BF018C810E94BF01D4
:1005C00080E00E94BF011A82198210C080E00E9460
:1005D000BF01E885F985808388859985019699878B
:1005E000888789819A8101969A83898329813A81B2
:1005F0008E819F812817390748F329960FB6F89402
:10060000DEBF0FBECDBFCF91DF910895DF93CF93B3
:1006100000D00F92CDB7DEB789837B836A83A5E2D2
:10062000B0E0E5E2F0E0808181608C93A5E2B0E08B
:10063000E5E2F0E080818E7F8C938981813079F4CE
:1006400084E80E94BF0180E00E94BF018A819B81F3
:10065000892F99270E94BF018A810E94BF010F90B4
:100660000F900F90CF91DF910895DF93CF9300D03B
:1006700000D0CDB7DEB789837B836A834C83A5E244
:10068000B0E0E5E2F0E0808181608C93A5E2B0E02B
:10069000E5E2F0E080818E7F8C938981813091F456
:1006A00084E80E94BF0180E00E94BF018A819B8193
:1006B000892F99270E94BF018A810E94BF018C81E6
:1006C0000E94BF010F900F900F900F90CF91DF917C
:1006D0000895DF93CF93CDB7DEB729970FB6F8947F
:1006E000DEBF0FBECDBF8B837D836C835F834E8364
:1006F00039872887A5E2B0E0E5E2F0E080818160FB
:100700008C93A5E2B0E0E5E2F0E080818E7F8C93EF
:100710008B81813041F584E80E94BF0180E00E9416
:10072000BF018C819D81892F99270E94BF018C81F7
:100730000E94BF011A8219820FC0E885F985808165
:100740000E94BF018885998501969987888789814C
:100750009A8101969A83898329813A818E819F812A
:100760002817390750F329960FB6F894DEBF0FBE4D
:10077000CDBFCF91DF910895DF93CF9300D00F923B
:10078000CDB7DEB789837B836A83A5E2B0E0E5E27B
:10079000F0E0808181608C93A5E2B0E0E5E2F0E0DA
:1007A00080818E7F8C938981813049F583E80E9416
:1007B000BF0180911602282F30E080E190E0AC016B
:1007C000421B530B9A018A819B8102C096958795A3
:1007D0002A95E2F70E94BF0180911602882F90E0CF
:1007E0009C01285030408A819B8102C0880F991F4C
:1007F0002A95E2F70E94BF0180E00E94BF01A5E2B6
:10080000B0E0E5E2F0E0808181608C93A5E2B0E0A9
:10081000E5E2F0E080818E7F8C930E94D8018823EE
:10082000E4F70F900F900F90CF91DF910895DF9331
:10083000CF9300D000D0CDB7DEB79A8389837C8375
:100840006B83A5E2B0E0E5E2F0E0808181608C930B
:10085000A5E2B0E0E5E2F0E080818E7F8C9388E64F
:100860000E94BF0180911602282F30E080E190E0C5
:10087000AC01421B530B9A0189819A8102C0969563
:1008800087952A95E2F70E94BF0180911602882F72
:1008900090E09C012850304089819A8102C0880FE5
:1008A000991F2A95E2F7282F8B819C81892F992700
:1008B000820F0E94BF018B810E94BF0180E00E94D5
:1008C000BF0180E00E94BF0180E00E94BF0180E084
:1008D0000E94BF010F900F900F900F90CF91DF916A
:1008E0000895DF93CF93CDB7DEB780E00E94E20595
:1008F000E7EEF0E08FE08083E5EEF0E087EB8083C9
:10090000E6EEF0E087E08083E4EEF0E080EC8083C8
:10091000A4EEB0E0E4EEF0E0808188608C93109269
:100920006C017894CF91DF910895DF93CF930F926C
:10093000CDB7DEB71092700119820BC08981882F64
:1009400090E0FC01E05BFD4F80E2808389818F5F56
:1009500089838981893190F30F90CF91DF91089538
:10096000DF93CF9300D00F92CDB7DEB79B838A83FE
:1009700081E08093700181E080936C0188EC90E0CD
:100980000E94E90681E080937001809170018823C4
:1009900009F443C01092700180916C018823E1F743
:1009A000198213C08981482F50E08981282F30E0B7
:1009B0008A819B81FC01E20FF31F8081FA01E05BD9
:1009C000FD4F808389818F5F89838981282F30E063
:1009D0008A819B81FC01E20FF31F8081882319F03B
:1009E00089818931F8F28981882F90E0FC01E05BF0
:1009F000FD4F10828981873048F081E08093190291
:100A00001092690283E080936D0104C01092190274
:100A10001092690281E080936C010F900F900F900B
:100A2000CF91DF910895DF93CF9300D0CDB7DEB79C
:100A30008A83198281E08093700189EC90E00E94A2
:100A4000E9068981893140F48981882F90E0FC0191
:100A5000E05BFD4F8A8180830F900F90CF91DF91F3
:100A60000895DF93CF930F92CDB7DEB78983898145
:100A700080936F010F90CF91DF910895DF93CF9313
:100A800000D0CDB7DEB789836A8380916C0188235B
:100A9000E1F78A818093190210926902898180931B
:100AA0006C010F900F90CF91DF910895DF93CF935A
:100AB000CDB7DEB710926E01CF91DF910895DF932D
:100AC000CF93CDB7DEB72D970FB6F894DEBF0FBE2C
:100AD000CDBF8C876D871B861A868D85863008F082
:100AE00068C08C858A3210F18C858B37F8F48C8540
:100AF000813618F08C858F7D8C878C858A528C8707
:100B00008C85882F90E0880F991F845A9F4F9C8373
:100B10008B838B819C81FC01859194919A8389833D
:100B2000FC83EB8389819A819B878A878D85882FB7
:100B300090E081709070882319F08FE0898702C05F
:100B400080EF89878D858695882F90E0845C9D4F06
:100B50009F838E831D822AC08A858F7088878A85AD
:100B60009B85929582958F7089279F7089279B8797
:100B70008A878D85882F90E081709070882321F07E
:100B800088858295807F8887EE81FF819081898525
:100B900098238885892BEE81FF8180838E819F81B8
:100BA00005969F838E838D818F5F8D838D818430A9
:100BB00098F22D960FB6F894DEBF0FBECDBFCF9141
:100BC000DF910895DF93CF9300D0CDB7DEB78A834E
:100BD0008A81882311F08FEF8A8319820BC0898163
:100BE000882F90E0FC01E45CFD4F8A81808389813D
:100BF0008F5F89838981843190F30F900F90CF911B
:100C0000DF9108951F920F920FB60F9211242F9328
:100C10003F934F935F936F937F938F939F93AF9384
:100C2000BF93EF93FF93DF93CF9300D000D00F9249
:100C3000CDB7DEB780911801815080931801809163
:100C40001902882391F080911801882381F4809102
:100C50006D01882321F481E080936C0108C08091AC
:100C60006D01815080936D0102C0109269021A8259
:100C700080916C01813009F081C080916E018530D6
:100C800010F41B8202C081E08B83198243C08091E3
:100C90006902282F332727FD30958981882F90E01E
:100CA000820F931F992314F18A818823F9F4898193
:100CB000282F30E080916902992787FD9095820F57
:100CC000931FFC01E05BFD4F80818D838D811C8231
:100CD000882314F481E08C838D818F778D838D81BF
:100CE000882331F489818F5F8A8302C080E28D83FB
:100CF0008C81882341F08B81882329F080E26981EF
:100D00000E945F0504C08D8169810E945F05898111
:100D10008F5F89838981863008F4B9CF198211C029
:100D20008981882F90E0DC01A451BF4F8981882FF1
:100D300090E0FC01E45CFD4F80818C9389818F5FA2
:100D400089838981843160F380916F01882329F040
:100D5000E4EFF0E081E0808303C0E4EFF0E0108294
:100D60008A81813021F48AEF8093690205C08091E5
:100D700069028F5F8093690210926C018091180163
:100D8000882319F483E08093180180916E018A30E2
:100D900019F410926E0105C080916E018F5F8093EF
:100DA0006E010F900F900F900F900F90CF91DF91E9
:100DB000FF91EF91BF91AF919F918F917F916F9133
:100DC0005F914F913F912F910F900FBE0F901F9009
:100DD0001895DF93CF93CDB7DEB729970FB6F89468
:100DE000DEBF0FBECDBF9987888781E080937001F9
:100DF00080917001882309F44DC010927001809198
:100E00006C018823E1F71F8218C08F81482F50E0C2
:100E10008F81282F30E088859985820F931F9E83CC
:100E20008D83ED81FE8184918C838C81FA01E05B5E
:100E3000FD4F80838F818F5F8F838F81282F30E0DC
:100E400088859985820F931F9B838A83EA81FB8122
:100E5000849189838981882319F08F818931A8F24F
:100E60008F81882F90E0FC01E05BFD4F10828F8125
:100E7000873048F081E0809319021092690283E084
:100E800080936D0104C0109219021092690281E0F2
:100E900080936C0129960FB6F894DEBF0FBECDBFCC
:100EA000CF91DF9108951F920F920FB60F921124E8
:100EB0008F939F93EF93FF93DF93CF9300D000D056
:100EC000CDB7DEB7E0ECF0E080818A83E6ECF0E0BD
:100ED00080818B838A8188718983809113028F5FDF
:100EE0008F778C83909114028C81891719F482E09A
:100EF00089830BC08C81809313028C81882F90E0B2
:100F0000FC01EF56FE4F8B8180838981809315020F
:100F10000F900F900F900F90CF91DF91FF91EF9175
:100F20009F918F910F900FBE0F901F9018951F9259
:100F30000F920FB60F9211248F939F93AF93BF938D
:100F4000EF93FF93DF93CF930F92CDB7DEB79091DE
:100F5000110280911202981799F0809112028F5F0E
:100F60008F718983898180931202A6ECB0E0898118
:100F7000882F90E0FC01EF58FE4F80818C9307C0D2
:100F8000A1ECB0E0E1ECF0E080818F7D8C930F90DC
:100F9000CF91DF91FF91EF91BF91AF919F918F9191
:100FA0000F900FBE0F901F901895DF93CF9300D036
:100FB000CDB7DEB79A838983109211021092120284
:100FC000109213021092140289819A8199234CF491
:100FD000E0ECF0E082E0808389819A819F779A83B8
:100FE0008983E5ECF0E089819A81892F99278083B4
:100FF000E4ECF0E089818083E1ECF0E088E9808333
:10100000E2ECF0E086E080830F900F90CF91DF91CB
:101010000895DF93CF9300D000D0CDB7DEB7909185
:10102000130280911402981729F480E091E09C83C8
:101030008B831DC0809114028F5F8F778A838A8192
:10104000809314028A81882F90E0FC01EF56FE4FB6
:101050008081898380911502882F90E0382F222784
:101060008981882F90E0820F931F9C838B838B81D3
:101070009C810F900F900F900F90CF91DF9108956A
:10108000DF93CF9300D0CDB7DEB78A838091110272
:101090008F5F8F7189839091120289818917D9F3AB
:1010A0008981882F90E0FC01EF58FE4F8A81808370
:1010B000898180931102A1ECB0E0E1ECF0E0808145
:1010C00080628C930F900F90CF91DF910895DF9302
:1010D000CF9300D0CDB7DEB79A8389830BC0E98167
:1010E000FA81208189819A8101969A838983822F4E
:1010F0000E944008E981FA818081882381F70F905E
:101100000F90CF91DF910895DF93CF9300D000D05F
:1011100000D0CDB7DEB79D838C8303C08E810E9443
:1011200040088C819D819B838A838C819D8101965F
:101130009D838C83EA81FB818491898389818E835D
:101140008E81882359F726960FB6F894DEBF0FBE1E
:10115000CDBFCF91DF9108950F931F93DF93CF936E
:10116000CDB7DEB72F970FB6F894DEBF0FBECDBF59
:101170009B878A876C875E874D8719861D821E82B2
:101180001F8218868D859E85AA2797FDA095BA2F68
:1011900024ED30E340E050E0BC01CD010E94910F0E
:1011A000AB01BC018C85882F90E09C01220F331F7E
:1011B000C901880F991F880F991F820F931FAA27B3
:1011C00097FDA095BA2F840F951FA61FB71F89837F
:1011D0009A83AB83BC83EA85FB8510821F862D81B1
:1011E0003E814F81588589819A81AB81BC8182176C
:1011F0009307A407B50710F481E08F878D819E8146
:10120000AF81B8850196A11DB11D8D839E83AF83EB
:10121000B887EF85EE2309F04CC08985282F30E090
:101220008A859B858C01020F131F0E940908F80113
:1012300080838985282F30E08A859B85FC01E20F19
:10124000F31F8081882351F28985282F30E08A8519
:101250009B85FC01E20FF31F80818A3009F4BECF29
:101260008985282F30E08A859B85FC01E20FF31FDA
:1012700080818D3021F099858C85981751F489856E
:10128000282F30E08A859B85FC01E20FF31F108236
:1012900010C08985282F30E08A859B85FC01E20FEC
:1012A000F31F8081882309F499CF89858F5F89870F
:1012B00095CF2F960FB6F894DEBF0FBECDBFCF915E
:1012C000DF911F910F910895DF93CF93CDB7DEB7D4
:1012D000ECE2F0E08081882F90E0887090700097B9
:1012E000B9F3ECE2F0E08081882F90E08470907098
:1012F0000097B9F3E3E2F0E08081882F90E08074FA
:1013000090700097B9F3E3E2F0E080818823DCF786
:10131000E3E2F0E08081882F90E080719070009788
:10132000B9F3CF91DF910895DF93CF93CDB7DEB7B7
:1013300029970FB6F894DEBF0FBECDBF0E94B7004D
:101340000E9471040E94950419828981282F30E03F
:1013500039872887888599858731910509F473C273
:1013600028853985283131050CF091C0888599850B
:101370008930910509F4A3C1288539852A303105C2
:101380000CF042C0888599858430910509F464C1C8
:101390002885398525303105F4F488859985813093
:1013A000910509F40EC1288539852230310534F4C0
:1013B00088859985009709F4FBC050C52885398533
:1013C0002230310509F420C1888599858330910543
:1013D00009F423C143C5288539852630310509F430
:1013E00086C188859985863091050CF43EC1288593
:1013F00039852730310509F483C18885998588307E
:10140000910509F451C12AC5288539852031310556
:1014100009F48FC28885998581319105FCF428856E
:1014200039852D30310509F495C1888599858E302F
:1014300091053CF4288539852A30310509F44BC1E2
:101440000DC5888599858E30910509F48CC1288554
:1014500039852F30310509F463C200C58885998527
:101460008231910509F4A3C22885398522313105DD
:101470000CF494C2888599858331910509F4A5C13E
:10148000288539852431310509F4A8C1E7C4888548
:1014900099858132910509F4A8C3288539852232BE
:1014A0003105ECF5888599858C31910509F45FC388
:1014B000288539852D313105CCF488859985893188
:1014C000910509F4F8C128853985293131050CF4D5
:1014D000BDC1888599858A31910509F49DC2288509
:1014E00039852B31310509F4A0C2B8C488859985A6
:1014F0008E31910509F4CEC2288539852E3131050A
:101500000CF43EC3888599858F31910509F4C5C2D5
:10151000288539852032310509F4F4C29FC48885B5
:1015200099858632910509F433C428853985273297
:101530003105CCF4888599858332910509F48DC3F2
:1015400028853985233231050CF452C38885998565
:101550008432910509F4B6C32885398525323105D1
:1015600009F4B9C37BC4888599858932910509F44A
:10157000F0C3288539852A3231056CF48885998530
:101580008732910509F40DC4288539852832310543
:1015900009F4D6C363C4888599858A32910509F414
:1015A00035C4288539852B32310509F438C456C431
:1015B0008AE191E00E94B0040E94640981E089837D
:1015C000C4CEECE2F0E08081882F90E084709070CF
:1015D000009711F482E08983ECE2F0E08081882FAB
:1015E00090E088709070009711F484E08983E3E2C2
:1015F000F0E08081882F90E080719070009709F072
:10160000A4CE88E08983A1CE81E291E00E94B0045B
:101610000E94640983E0898398CEECE2F0E0808147
:10162000882F90E084709070009711F484E0898393
:10163000ECE2F0E08081882F90E088709070009755
:1016400009F41982E3E2F0E03081E3E2F0E0808126
:10165000E3E2F0E0908179CE88E291E00E94B0046C
:101660000E94640985E0898370CEECE2F0E080811D
:10167000882F90E084709070009709F41982ECE252
:10168000F0E08081882F90E088709070009711F4CE
:1016900082E08983E3E2F0E02081E3E2F0E0308160
:1016A000E3E2F0E0808151CE1982E3E2F0E0808154
:1016B000882F90E0807190700097B9F346CE8BE050
:1016C0008983E3E2F0E08081882F90E08071907060
:1016D0000097B9F33ACE8CE08983E3E2F0E08081B1
:1016E000882F90E0807190700097B9F32ECE8FE232
:1016F00091E00E94B0040E94640987E0898325CEAE
:10170000ECE2F0E08081882F90E084709070009788
:1017100011F48DE08983ECE2F0E08081882F90E085
:1017200088709070009711F483E18983E3E2F0E020
:101730008081882314F085E18983E3E2F0E08081F1
:10174000882F90E080719070009709F0FECD85E1C0
:101750008983FBCD85E391E00E94B0040E94640977
:101760008EE08983F2CDECE2F0E08081882F90E07A
:1017700084709070009711F48FE08983ECE2F0E0C0
:101780008081882F90E088709070009711F486E037
:101790008983E3E2F0E08081882F90E0807490708C
:1017A000009709F41982E3E2F0E0808188230CF0CD
:1017B0001982E3E2F0E08081882F90E080719070E0
:1017C000009709F0C2CD1982C0CD8AE391E00E9452
:1017D000B0040E94640984E18983B7CDECE2F0E0B3
:1017E0008081882F90E084709070009711F486E0DB
:1017F0008983ECE2F0E08081882F90E0887090701F
:10180000009711F481E18983E3E2F0E08081882F81
:1018100090E080749070009711F487E18983E3E28F
:10182000F0E08081882314F087E18983E3E2F0E02F
:101830008081882F90E080719070009709F085CDAD
:1018400087E1898382CD0E9464097FCDECE2F0E0DC
:101850008081882F90E084709070009711F489E166
:101860008983ECE2F0E08081882F90E088709070AE
:10187000009711F489E18983E3E2F0E08081882F09
:1018800090E080749070009711F483E18983E3E223
:10189000F0E08081882314F083E18983E3E2F0E0C3
:1018A0008081882F90E080719070009709F04DCD75
:1018B00083E189834ACDECE2F0E08081882F90E0DB
:1018C00084709070009711F488E18983ECE2F0E075
:1018D0008081882F90E088709070009711F488E1E3
:1018E0008983E3E2F0E08081882F90E0807490703B
:1018F000009711F483E18983E3E2F0E0808188239B
:1019000014F083E18983E3E2F0E08081882F90E0A6
:1019100080719070009709F018CD83E1898315CD0F
:1019200080E491E00E94B0040E94640980E1898310
:101930000CCDECE2F0E08081882F90E08470907014
:10194000009711F481E18983ECE2F0E08081882F37
:1019500090E088709070009711F48DE08983E3E245
:10196000F0E08081882F90E080749070009711F4EF
:101970008AE18983E3E2F0E08081882314F08AE140
:101980008983E3E2F0E08081882F90E0807190709D
:10199000009709F0DACC8AE18983D7CC87E491E01B
:1019A0000E94B0040E94640982E18983CECCECE2FB
:1019B000F0E08081882F90E084709070009711F49F
:1019C00083E18983ECE2F0E08081882F90E08870E9
:1019D0009070009711F48FE08983E3E2F0E080815A
:1019E000882F90E080749070009711F48CE18983C7
:1019F000E3E2F0E08081882314F08CE18983E3E264
:101A0000F0E08081882F90E080719070009709F05D
:101A10009CCC8CE1898399CC8EE491E00E94B00447
:101A20000E9464098BE1898390CCECE2F0E0808134
:101A3000882F90E084709070009711F484E289837D
:101A4000ECE2F0E08081882F90E088709070009741
:101A500011F484E28983E3E2F0E08081882F90E052
:101A600080749070009711F48FE08983E3E2F0E0D6
:101A70008081882314F08EE18983E3E2F0E08081A5
:101A8000882F90E080719070009709F05ECC8EE115
:101A900089835BCC0E94640958CCECE2F0E0808141
:101AA000882F90E084709070009711F480E2898311
:101AB000ECE2F0E08081882F90E0887090700097D1
:101AC00011F480E28983E3E2F0E08081882F90E0E6
:101AD00080749070009711F48AE18983E3E2F0E06A
:101AE0008081882314F08AE18983E3E2F0E0808139
:101AF000882F90E080719070009709F026CC8AE1E1
:101B0000898323CCECE2F0E08081882F90E0847020
:101B10009070009711F48FE18983ECE2F0E080810E
:101B2000882F90E088709070009711F48FE189837E
:101B3000E3E2F0E08081882F90E08074907000975D
:101B400011F48AE18983E3E2F0E08081882314F0D4
:101B50008AE18983E3E2F0E08081882F90E0807160
:101B60009070009709F0F1CB8AE18983EECB8EE487
:101B700091E00E94B0040E9464098DE18983E5CB65
:101B8000ECE2F0E08081882F90E084709070009704
:101B900011F486E28983ECE2F0E08081882F90E006
:101BA00088709070009711F486E28983E3E2F0E098
:101BB0008081882F90E080749070009711F481E10B
:101BC0008983E3E2F0E08081882314F081E2898355
:101BD000E3E2F0E08081882F90E0807190700097C0
:101BE00009F0B3CB81E28983B0CB0E946409ADCB0D
:101BF000ECE2F0E08081882F90E084709070009794
:101C000011F483E28983ECE2F0E08081882F90E098
:101C100088709070009711F483E28983E3E2F0E02A
:101C20008081882F90E080749070009711F48CE18F
:101C30008983E3E2F0E08081882314F08CE18983DA
:101C4000E3E2F0E08081882F90E08071907000974F
:101C500009F07BCB8CE1898378CBECE2F0E08081EA
:101C6000882F90E084709070009711F482E289834D
:101C7000ECE2F0E08081882F90E08870907000970F
:101C800011F482E28983E3E2F0E08081882F90E022
:101C900080749070009711F48CE18983E3E2F0E0A6
:101CA0008081882314F08CE18983E3E2F0E0808175
:101CB000882F90E080719070009709F046CB8CE1FE
:101CC000898343CB85E591E00E94B0040E946409BA
:101CD00085E289833ACBECE2F0E08081882F90E0C6
:101CE00084709070009711F48AE18983ECE2F0E04F
:101CF0008081882F90E088709070009711F48AE1BD
:101D00008983E3E2F0E08081882F90E08074907016
:101D1000009711F48FE08983E3E2F0E0808188236B
:101D200014F088E28983E3E2F0E08081882F90E07C
:101D300080719070009709F008CB88E2898305CB09
:101D40008CE591E00E94B0040E94640989E28983D5
:101D5000FCCAE3E2F0E08081882F90E0807490700C
:101D6000009711F484E28983E3E2F0E08081882324
:101D700014F084E28983E3E2F0E08081882F90E030
:101D800080719070009709F0E0CA84E28983DDCA0F
:101D900081E691E00E94B0040E94640985E2898393
:101DA000D4CAECE2F0E08081882F90E084709070DB
:101DB000009711F48CE18983ECE2F0E08081882FB8
:101DC00090E088709070009711F48CE18983E3E2D1
:101DD000F0E08081882F90E080749070009711F47B
:101DE00081E18983E3E2F0E08081882314F08AE2D4
:101DF0008983E3E2F0E08081882F90E08071907029
:101E0000009709F0A2CA8AE289839FCA8CE591E013
:101E10000E94B0040E9464098BE2898396CAE3E2BF
:101E2000F0E08081882F90E080749070009711F42A
:101E300086E28983E3E2F0E08081882314F086E281
:101E40008983E3E2F0E08081882F90E080719070D8
:101E5000009709F07ACA86E2898377CA198275CA1F
:101E6000A0E0B0E0E6E3FFE00C94F50FEC01A88001
:101E7000B980CA80DB80A114B104C104D10441F44B
:101E800084E2A82E89EDB82E8BE5C82E87E0D82EE7
:101E9000C601B5012DE133EF41E050E00E94B00FE3
:101EA00027EA31E440E050E00E94910F7B018C0171
:101EB000C601B5012DE133EF41E050E00E94B00FC3
:101EC000CA01B9012CEE34EF4FEF5FEF0E94910F82
:101ED0006E0D7F1D801F911F97FF04C061507040E1
:101EE00080409048688379838A839B839B01AC01FF
:101EF0005F77B901CA01CDB7DEB7EAE00C941110E3
:101F00000E94300F089588E691E00E94300F0895F6
:101F1000609368017093690180936A0190936B01EB
:101F20000895629FD001739FF001829FE00DF11D23
:101F3000649FE00DF11D929FF00D839FF00D749F43
:101F4000F00D659FF00D9927729FB00DE11DF91FEF
:101F5000639FB00DE11DF91FBD01CF01112408954C
:101F600097FB092E05260ED057FD04D014D00AD0B9
:101F7000001C38F450954095309521953F4F4F4FB8
:101F80005F4F0895F6F790958095709561957F4F16
:101F90008F4F9F4F0895A1E21A2EAA1BBB1BFD0174
:101FA0000DC0AA1FBB1FEE1FFF1FA217B307E40738
:101FB000F50720F0A21BB30BE40BF50B661F771F90
:101FC000881F991F1A9469F7609570958095909570
:101FD0009B01AC01BD01CF0108952F923F924F921A
:101FE0005F926F927F928F929F92AF92BF92CF92A9
:101FF000DF92EF92FF920F931F93CF93DF93CDB7B2
:10200000DEB7CA1BDB0B0FB6F894DEBF0FBECDBF29
:1020100009942A88398848885F846E847D848C84FA
:102020009B84AA84B984C884DF80EE80FD800C8103
:102030001B81AA81B981CE0FD11D0FB6F894DEBFE6
:0C2040000FBECDBFED010895F894FFCF56
:10204C0009090909090A0A0B080108010801080114
:10205C000801100210022004030F20203030303011
:10206C0000312030303130003220303031300053EC
:10207C0045542054004241434B00534F554E4400AD
:10208C0053455420543100534554205432004F4E84
:10209C002F4F464600434E544457310030303030B9
:0C20AC0000434E54445732000100000075
:00000001FF
